{
  "_format": "hh-sol-artifact-1",
  "contractName": "WAGGame",
  "sourceName": "contracts/staking/WAGGame.sol",
  "abi": [
    {
      "inputs": [
        {
          "internalType": "contract ILAND",
          "name": "_land",
          "type": "address"
        },
        {
          "internalType": "contract ITraits",
          "name": "_traits",
          "type": "address"
        },
        {
          "internalType": "contract IWildAbduction",
          "name": "_wagNFT",
          "type": "address"
        }
      ],
      "stateMutability": "nonpayable",
      "type": "constructor"
    },
    {
      "anonymous": false,
      "inputs": [
        {
          "indexed": true,
          "internalType": "address",
          "name": "owner",
          "type": "address"
        },
        {
          "indexed": true,
          "internalType": "address",
          "name": "approved",
          "type": "address"
        },
        {
          "indexed": true,
          "internalType": "uint256",
          "name": "tokenId",
          "type": "uint256"
        }
      ],
      "name": "Approval",
      "type": "event"
    },
    {
      "anonymous": false,
      "inputs": [
        {
          "indexed": true,
          "internalType": "address",
          "name": "owner",
          "type": "address"
        },
        {
          "indexed": true,
          "internalType": "address",
          "name": "operator",
          "type": "address"
        },
        {
          "indexed": false,
          "internalType": "bool",
          "name": "approved",
          "type": "bool"
        }
      ],
      "name": "ApprovalForAll",
      "type": "event"
    },
    {
      "anonymous": false,
      "inputs": [
        {
          "indexed": true,
          "internalType": "address",
          "name": "previousOwner",
          "type": "address"
        },
        {
          "indexed": true,
          "internalType": "address",
          "name": "newOwner",
          "type": "address"
        }
      ],
      "name": "OwnershipTransferred",
      "type": "event"
    },
    {
      "anonymous": false,
      "inputs": [
        {
          "indexed": false,
          "internalType": "address",
          "name": "account",
          "type": "address"
        }
      ],
      "name": "Paused",
      "type": "event"
    },
    {
      "anonymous": false,
      "inputs": [
        {
          "indexed": true,
          "internalType": "address",
          "name": "from",
          "type": "address"
        },
        {
          "indexed": true,
          "internalType": "address",
          "name": "to",
          "type": "address"
        },
        {
          "indexed": true,
          "internalType": "uint256",
          "name": "tokenId",
          "type": "uint256"
        }
      ],
      "name": "Transfer",
      "type": "event"
    },
    {
      "anonymous": false,
      "inputs": [
        {
          "indexed": false,
          "internalType": "address",
          "name": "account",
          "type": "address"
        }
      ],
      "name": "Unpaused",
      "type": "event"
    },
    {
      "inputs": [
        {
          "internalType": "address[]",
          "name": "addressesToAdd",
          "type": "address[]"
        },
        {
          "internalType": "bool",
          "name": "freeMint",
          "type": "bool"
        }
      ],
      "name": "addToWhitelist",
      "outputs": [],
      "stateMutability": "nonpayable",
      "type": "function"
    },
    {
      "inputs": [
        {
          "internalType": "address",
          "name": "to",
          "type": "address"
        },
        {
          "internalType": "uint256",
          "name": "tokenId",
          "type": "uint256"
        }
      ],
      "name": "approve",
      "outputs": [],
      "stateMutability": "nonpayable",
      "type": "function"
    },
    {
      "inputs": [
        {
          "internalType": "address",
          "name": "owner",
          "type": "address"
        }
      ],
      "name": "balanceOf",
      "outputs": [
        {
          "internalType": "uint256",
          "name": "",
          "type": "uint256"
        }
      ],
      "stateMutability": "view",
      "type": "function"
    },
    {
      "inputs": [
        {
          "internalType": "uint256",
          "name": "tokenId",
          "type": "uint256"
        }
      ],
      "name": "getApproved",
      "outputs": [
        {
          "internalType": "address",
          "name": "",
          "type": "address"
        }
      ],
      "stateMutability": "view",
      "type": "function"
    },
    {
      "inputs": [],
      "name": "hasPublicSaleStarted",
      "outputs": [
        {
          "internalType": "bool",
          "name": "",
          "type": "bool"
        }
      ],
      "stateMutability": "view",
      "type": "function"
    },
    {
      "inputs": [
        {
          "internalType": "address",
          "name": "owner",
          "type": "address"
        },
        {
          "internalType": "address",
          "name": "operator",
          "type": "address"
        }
      ],
      "name": "isApprovedForAll",
      "outputs": [
        {
          "internalType": "bool",
          "name": "",
          "type": "bool"
        }
      ],
      "stateMutability": "view",
      "type": "function"
    },
    {
      "inputs": [],
      "name": "land",
      "outputs": [
        {
          "internalType": "contract ILAND",
          "name": "",
          "type": "address"
        }
      ],
      "stateMutability": "view",
      "type": "function"
    },
    {
      "inputs": [
        {
          "internalType": "uint256",
          "name": "amount",
          "type": "uint256"
        },
        {
          "internalType": "bool",
          "name": "stake",
          "type": "bool"
        }
      ],
      "name": "mint",
      "outputs": [],
      "stateMutability": "payable",
      "type": "function"
    },
    {
      "inputs": [
        {
          "internalType": "uint256",
          "name": "tokenId",
          "type": "uint256"
        },
        {
          "internalType": "uint256",
          "name": "paidTokens",
          "type": "uint256"
        }
      ],
      "name": "mintCost",
      "outputs": [
        {
          "internalType": "uint256",
          "name": "",
          "type": "uint256"
        }
      ],
      "stateMutability": "view",
      "type": "function"
    },
    {
      "inputs": [],
      "name": "name",
      "outputs": [
        {
          "internalType": "string",
          "name": "",
          "type": "string"
        }
      ],
      "stateMutability": "view",
      "type": "function"
    },
    {
      "inputs": [],
      "name": "owner",
      "outputs": [
        {
          "internalType": "address",
          "name": "",
          "type": "address"
        }
      ],
      "stateMutability": "view",
      "type": "function"
    },
    {
      "inputs": [
        {
          "internalType": "uint256",
          "name": "tokenId",
          "type": "uint256"
        }
      ],
      "name": "ownerOf",
      "outputs": [
        {
          "internalType": "address",
          "name": "",
          "type": "address"
        }
      ],
      "stateMutability": "view",
      "type": "function"
    },
    {
      "inputs": [],
      "name": "paused",
      "outputs": [
        {
          "internalType": "bool",
          "name": "",
          "type": "bool"
        }
      ],
      "stateMutability": "view",
      "type": "function"
    },
    {
      "inputs": [],
      "name": "presalePrice",
      "outputs": [
        {
          "internalType": "uint256",
          "name": "",
          "type": "uint256"
        }
      ],
      "stateMutability": "view",
      "type": "function"
    },
    {
      "inputs": [],
      "name": "publicPrice",
      "outputs": [
        {
          "internalType": "uint256",
          "name": "",
          "type": "uint256"
        }
      ],
      "stateMutability": "view",
      "type": "function"
    },
    {
      "inputs": [],
      "name": "renounceOwnership",
      "outputs": [],
      "stateMutability": "nonpayable",
      "type": "function"
    },
    {
      "inputs": [
        {
          "internalType": "address",
          "name": "from",
          "type": "address"
        },
        {
          "internalType": "address",
          "name": "to",
          "type": "address"
        },
        {
          "internalType": "uint256",
          "name": "tokenId",
          "type": "uint256"
        }
      ],
      "name": "safeTransferFrom",
      "outputs": [],
      "stateMutability": "nonpayable",
      "type": "function"
    },
    {
      "inputs": [
        {
          "internalType": "address",
          "name": "from",
          "type": "address"
        },
        {
          "internalType": "address",
          "name": "to",
          "type": "address"
        },
        {
          "internalType": "uint256",
          "name": "tokenId",
          "type": "uint256"
        },
        {
          "internalType": "bytes",
          "name": "_data",
          "type": "bytes"
        }
      ],
      "name": "safeTransferFrom",
      "outputs": [],
      "stateMutability": "nonpayable",
      "type": "function"
    },
    {
      "inputs": [
        {
          "internalType": "address",
          "name": "operator",
          "type": "address"
        },
        {
          "internalType": "bool",
          "name": "approved",
          "type": "bool"
        }
      ],
      "name": "setApprovalForAll",
      "outputs": [],
      "stateMutability": "nonpayable",
      "type": "function"
    },
    {
      "inputs": [
        {
          "internalType": "address",
          "name": "_bank",
          "type": "address"
        }
      ],
      "name": "setBank",
      "outputs": [],
      "stateMutability": "nonpayable",
      "type": "function"
    },
    {
      "inputs": [
        {
          "internalType": "bool",
          "name": "_paused",
          "type": "bool"
        }
      ],
      "name": "setPaused",
      "outputs": [],
      "stateMutability": "nonpayable",
      "type": "function"
    },
    {
      "inputs": [
        {
          "internalType": "bool",
          "name": "started",
          "type": "bool"
        }
      ],
      "name": "setPublicSaleStart",
      "outputs": [],
      "stateMutability": "nonpayable",
      "type": "function"
    },
    {
      "inputs": [
        {
          "internalType": "uint256",
          "name": "_amount",
          "type": "uint256"
        }
      ],
      "name": "setmaxLandCost",
      "outputs": [],
      "stateMutability": "nonpayable",
      "type": "function"
    },
    {
      "inputs": [
        {
          "internalType": "bytes4",
          "name": "interfaceId",
          "type": "bytes4"
        }
      ],
      "name": "supportsInterface",
      "outputs": [
        {
          "internalType": "bool",
          "name": "",
          "type": "bool"
        }
      ],
      "stateMutability": "view",
      "type": "function"
    },
    {
      "inputs": [],
      "name": "symbol",
      "outputs": [
        {
          "internalType": "string",
          "name": "",
          "type": "string"
        }
      ],
      "stateMutability": "view",
      "type": "function"
    },
    {
      "inputs": [
        {
          "internalType": "uint256",
          "name": "index",
          "type": "uint256"
        }
      ],
      "name": "tokenByIndex",
      "outputs": [
        {
          "internalType": "uint256",
          "name": "",
          "type": "uint256"
        }
      ],
      "stateMutability": "view",
      "type": "function"
    },
    {
      "inputs": [
        {
          "internalType": "address",
          "name": "owner",
          "type": "address"
        },
        {
          "internalType": "uint256",
          "name": "index",
          "type": "uint256"
        }
      ],
      "name": "tokenOfOwnerByIndex",
      "outputs": [
        {
          "internalType": "uint256",
          "name": "",
          "type": "uint256"
        }
      ],
      "stateMutability": "view",
      "type": "function"
    },
    {
      "inputs": [
        {
          "internalType": "uint256",
          "name": "tokenId",
          "type": "uint256"
        }
      ],
      "name": "tokenURI",
      "outputs": [
        {
          "internalType": "string",
          "name": "",
          "type": "string"
        }
      ],
      "stateMutability": "view",
      "type": "function"
    },
    {
      "inputs": [],
      "name": "totalSupply",
      "outputs": [
        {
          "internalType": "uint256",
          "name": "",
          "type": "uint256"
        }
      ],
      "stateMutability": "view",
      "type": "function"
    },
    {
      "inputs": [],
      "name": "traits",
      "outputs": [
        {
          "internalType": "contract ITraits",
          "name": "",
          "type": "address"
        }
      ],
      "stateMutability": "view",
      "type": "function"
    },
    {
      "inputs": [
        {
          "internalType": "address",
          "name": "from",
          "type": "address"
        },
        {
          "internalType": "address",
          "name": "to",
          "type": "address"
        },
        {
          "internalType": "uint256",
          "name": "tokenId",
          "type": "uint256"
        }
      ],
      "name": "transferFrom",
      "outputs": [],
      "stateMutability": "nonpayable",
      "type": "function"
    },
    {
      "inputs": [
        {
          "internalType": "address",
          "name": "newOwner",
          "type": "address"
        }
      ],
      "name": "transferOwnership",
      "outputs": [],
      "stateMutability": "nonpayable",
      "type": "function"
    },
    {
      "inputs": [],
      "name": "withdraw",
      "outputs": [],
      "stateMutability": "nonpayable",
      "type": "function"
    }
  ],
  "bytecode": "0x6080604052600b805460ff191690556658d15e17628000600c55668e1bc9bf040000600d55690ed2b525841adfc00000600e55619c40600f553480156200004557600080fd5b5060405162002eb238038062002eb2833981016040819052620000689162000261565b604051806040016040528060088152602001675741472047616d6560c01b815250604051806040016040528060058152602001645747414d4560d81b815250620000c1620000bb6200014e60201b60201c565b62000152565b6000805460ff60a01b191690558151620000e3906001906020850190620001a2565b508051620000f9906002906020840190620001a2565b5050601380546001600160a01b039586166001600160a01b031991821617909155600b805461ff00191690556015805493861693821693909317909255506014805492909316911617905542601055620002f2565b3390565b600080546001600160a01b038381166001600160a01b0319831681178455604051919092169283917f8be0079c531659141344cd1fd0a4f28419497f9722a3daafe3b4186f6b6457e09190a35050565b828054620001b090620002b5565b90600052602060002090601f016020900481019282620001d457600085556200021f565b82601f10620001ef57805160ff19168380011785556200021f565b828001600101855582156200021f579182015b828111156200021f57825182559160200191906001019062000202565b506200022d92915062000231565b5090565b5b808211156200022d576000815560010162000232565b6001600160a01b03811681146200025e57600080fd5b50565b6000806000606084860312156200027757600080fd5b8351620002848162000248565b6020850151909350620002978162000248565b6040850151909250620002aa8162000248565b809150509250925092565b600181811c90821680620002ca57607f821691505b60208210811415620002ec57634e487b7160e01b600052602260045260246000fd5b50919050565b612bb080620003026000396000f3fe6080604052600436106101ed5760003560e01c80635c975abb1161010d578063a22cb465116100a0578063e1fc334f1161006f578063e1fc334f14610561578063e6eebd8b14610581578063e985e9c5146105a1578063f2fde38b146105ea578063fdd4b0f01461060a57600080fd5b8063a22cb465146104eb578063a945bf801461050b578063b88d4fde14610521578063c87b56dd1461054157600080fd5b8063715018a6116100dc578063715018a6146104835780638c980129146104985780638da5cb5b146104b857806395d89b41146104d657600080fd5b80635c975abb146104115780636352211e1461043057806367f68fac1461045057806370a082311461046357600080fd5b806323b872dd116101855780633d73c75d116101545780633d73c75d14610391578063408ae585146103b157806342842e0e146103d15780634f6ccce7146103f157600080fd5b806323b872dd1461031c5780632f745c591461033c5780633761a3dd1461035c5780633ccfd60b1461037c57600080fd5b8063090d23b9116101c1578063090d23b9146102a5578063095ea7b3146102c757806316c38b3c146102e757806318160ddd1461030757600080fd5b80620e7fa8146101f257806301ffc9a71461021b57806306fdde031461024b578063081812fc1461026d575b600080fd5b3480156101fe57600080fd5b50610208600c5481565b6040519081526020015b60405180910390f35b34801561022757600080fd5b5061023b61023636600461243a565b610629565b6040519015158152602001610212565b34801561025757600080fd5b50610260610654565b60405161021291906124af565b34801561027957600080fd5b5061028d6102883660046124c2565b6106e6565b6040516001600160a01b039091168152602001610212565b3480156102b157600080fd5b506102c56102c03660046124f0565b610780565b005b3480156102d357600080fd5b506102c56102e236600461250d565b6107cc565b3480156102f357600080fd5b506102c561030236600461254e565b6108e2565b34801561031357600080fd5b50600954610208565b34801561032857600080fd5b506102c5610337366004612569565b610991565b34801561034857600080fd5b5061020861035736600461250d565b6109c2565b34801561036857600080fd5b506102c56103773660046124c2565b610a58565b34801561038857600080fd5b506102c5610af3565b34801561039d57600080fd5b506102c56103ac36600461254e565b610b57565b3480156103bd57600080fd5b506102c56103cc3660046125aa565b610bab565b3480156103dd57600080fd5b506102c56103ec366004612569565b610cac565b3480156103fd57600080fd5b5061020861040c3660046124c2565b610cc7565b34801561041d57600080fd5b50600054600160a01b900460ff1661023b565b34801561043c57600080fd5b5061028d61044b3660046124c2565b610d5a565b6102c561045e36600461262e565b610dd1565b34801561046f57600080fd5b5061020861047e3660046124f0565b611687565b34801561048f57600080fd5b506102c561170e565b3480156104a457600080fd5b5060135461028d906001600160a01b031681565b3480156104c457600080fd5b506000546001600160a01b031661028d565b3480156104e257600080fd5b50610260611744565b3480156104f757600080fd5b506102c561050636600461265a565b611753565b34801561051757600080fd5b50610208600d5481565b34801561052d57600080fd5b506102c561053c36600461269c565b611762565b34801561054d57600080fd5b5061026061055c3660046124c2565b611794565b34801561056d57600080fd5b5060145461028d906001600160a01b031681565b34801561058d57600080fd5b5061020861059c36600461277c565b61187c565b3480156105ad57600080fd5b5061023b6105bc36600461279e565b6001600160a01b03918216600090815260066020908152604080832093909416825291909152205460ff1690565b3480156105f657600080fd5b506102c56106053660046124f0565b611903565b34801561061657600080fd5b50600b5461023b90610100900460ff1681565b60006001600160e01b0319821663780e9d6360e01b148061064e575061064e82611a40565b92915050565b606060018054610663906127d7565b80601f016020809104026020016040519081016040528092919081815260200182805461068f906127d7565b80156106dc5780601f106106b1576101008083540402835291602001916106dc565b820191906000526020600020905b8154815290600101906020018083116106bf57829003601f168201915b5050505050905090565b6000818152600360205260408120546001600160a01b03166107645760405162461bcd60e51b815260206004820152602c60248201527f4552433732313a20617070726f76656420717565727920666f72206e6f6e657860448201526b34b9ba32b73a103a37b5b2b760a11b60648201526084015b60405180910390fd5b506000908152600560205260409020546001600160a01b031690565b6000546001600160a01b031633146107aa5760405162461bcd60e51b815260040161075b90612812565b601680546001600160a01b0319166001600160a01b0392909216919091179055565b60006107d782610d5a565b9050806001600160a01b0316836001600160a01b031614156108455760405162461bcd60e51b815260206004820152602160248201527f4552433732313a20617070726f76616c20746f2063757272656e74206f776e656044820152603960f91b606482015260840161075b565b336001600160a01b0382161480610861575061086181336105bc565b6108d35760405162461bcd60e51b815260206004820152603860248201527f4552433732313a20617070726f76652063616c6c6572206973206e6f74206f7760448201527f6e6572206e6f7220617070726f76656420666f7220616c6c0000000000000000606482015260840161075b565b6108dd8383611a90565b505050565b6013546001600160a01b03161580159061090657506014546001600160a01b031615155b801561091c57506015546001600160a01b031615155b801561093257506016546001600160a01b031615155b61094e5760405162461bcd60e51b815260040161075b90612847565b6000546001600160a01b031633146109785760405162461bcd60e51b815260040161075b90612812565b80156109895761098661199b565b50565b610986611afe565b61099b3382611b82565b6109b75760405162461bcd60e51b815260040161075b90612872565b6108dd838383611c79565b60006109cd83611687565b8210610a2f5760405162461bcd60e51b815260206004820152602b60248201527f455243373231456e756d657261626c653a206f776e657220696e646578206f7560448201526a74206f6620626f756e647360a81b606482015260840161075b565b506001600160a01b03919091166000908152600760209081526040808320938352929052205490565b6013546001600160a01b031615801590610a7c57506014546001600160a01b031615155b8015610a9257506015546001600160a01b031615155b8015610aa857506016546001600160a01b031615155b610ac45760405162461bcd60e51b815260040161075b90612847565b6000546001600160a01b03163314610aee5760405162461bcd60e51b815260040161075b90612812565b600e55565b6000546001600160a01b03163314610b1d5760405162461bcd60e51b815260040161075b90612812565b600080546040516001600160a01b03909116914780156108fc02929091818181858888f19350505050158015610986573d6000803e3d6000fd5b6000546001600160a01b03163314610b815760405162461bcd60e51b815260040161075b90612812565b600b805461ff0019166101008315158102919091179182905560ff91041615610986574260105550565b6000546001600160a01b03163314610bd55760405162461bcd60e51b815260040161075b90612812565b60005b82811015610ca6576040518060600160405280600115158152602001600061ffff16815260200183151581525060116000868685818110610c1b57610c1b6128c3565b9050602002016020810190610c3091906124f0565b6001600160a01b03168152602080820192909252604090810160002083518154938501519490920151151563010000000263ff0000001961ffff9095166101000262ffff00199315159390931662ffffff1990941693909317919091179290921617905580610c9e816128ef565b915050610bd8565b50505050565b6108dd83838360405180602001604052806000815250611762565b6000610cd260095490565b8210610d355760405162461bcd60e51b815260206004820152602c60248201527f455243373231456e756d657261626c653a20676c6f62616c20696e646578206f60448201526b7574206f6620626f756e647360a01b606482015260840161075b565b60098281548110610d4857610d486128c3565b90600052602060002001549050919050565b6000818152600360205260408120546001600160a01b03168061064e5760405162461bcd60e51b815260206004820152602960248201527f4552433732313a206f776e657220717565727920666f72206e6f6e657869737460448201526832b73a103a37b5b2b760b91b606482015260840161075b565b600054600160a01b900460ff1615610e1e5760405162461bcd60e51b815260206004820152601060248201526f14185d5cd8589b194e881c185d5cd95960821b604482015260640161075b565b600b5460ff1615610e615760405162461bcd60e51b815260206004820152600d60248201526c4e6f207265656e7472616e637960981b604482015260640161075b565b600b805460ff191660011790556013546001600160a01b031615801590610e9257506014546001600160a01b031615155b8015610ea857506015546001600160a01b031615155b8015610ebe57506016546001600160a01b031615155b610eda5760405162461bcd60e51b815260040161075b90612847565b323314610f145760405162461bcd60e51b81526020600482015260086024820152674f6e6c7920454f4160c01b604482015260640161075b565b60155460408051630278162160e51b815290516000926001600160a01b031691634f02c42091600480830192602092919082900301818787803b158015610f5a57600080fd5b505af1158015610f6e573d6000803e3d6000fd5b505050506040513d601f19601f82011682018060405250810190610f92919061290a565b90506000601560009054906101000a90046001600160a01b03166001600160a01b0316634018b1f86040518163ffffffff1660e01b815260040160206040518083038186803b158015610fe457600080fd5b505afa158015610ff8573d6000803e3d6000fd5b505050506040513d601f19601f8201168201806040525081019061101c919061292e565b600f5490915061103061ffff841686612947565b111561103b57600080fd5b60008411801561104c575060148411155b61108e5760405162461bcd60e51b8152602060048201526013602482015272125b9d985b1a59081b5a5b9d08185b5bdd5b9d606a1b604482015260640161075b565b808261ffff16101561131157806110a98561ffff8516612947565b11156110ec5760405162461bcd60e51b8152602060048201526012602482015271105b1b0819d95b880c09dcc81b5a5b9d195960721b604482015260640161075b565b600b54610100900460ff161561115657600d54611109908561295f565b3410156111515760405162461bcd60e51b8152602060048201526016602482015275125b9d985b1a59081c185e5b595b9d08185b5bdd5b9d60521b604482015260640161075b565b61131c565b3360009081526011602052604090205460ff166111a85760405162461bcd60e51b815260206004820152601060248201526f139bdd081bdb881dda1a5d195b1a5cdd60821b604482015260640161075b565b336000908152601160205260409020546301000000900460ff1615156001141561120d57600c546111d9818661295f565b6111e3919061297e565b34146111ee57600080fd5b336000908152601160205260409020805463ff00000019169055611261565b600c5461121a908561295f565b34146112615760405162461bcd60e51b8152602060048201526016602482015275125b9d985b1a59081c185e5b595b9d08185b5bdd5b9d60521b604482015260640161075b565b33600090815260116020526040902054601490611288908690610100900461ffff16612947565b11156112c75760405162461bcd60e51b815260206004820152600e60248201526d746f6f206d616e79206d696e747360901b604482015260640161075b565b33600090815260116020526040902080548591906001906112f2908490610100900461ffff16612995565b92506101000a81548161ffff021916908361ffff16021790555061131c565b341561131c57600080fd5b6000808567ffffffffffffffff81111561133857611338612686565b604051908082528060200260200182016040528015611361578160200160208202803683370190505b5090506000805b87811015611591578561137a816129bb565b96505061138a8661ffff16611e20565b91503361ffff8716861015806113ad57506113aa600a60f585901c6129f3565b15155b156113b957503361144b565b601654604051633b55eb4960e21b8152609085901c60048201526001600160a01b039091169063ed57ad249060240160206040518083038186803b15801561140057600080fd5b505afa158015611414573d6000803e3d6000fd5b505050506040513d601f19601f820116820180604052508101906114389190612a07565b90506001600160a01b03811661144b5750335b8684838151811061145e5761145e6128c3565b602002602001019061ffff16908161ffff168152505087158061148a57506001600160a01b0381163314155b156114fa576015546040516340c10f1960e01b81526001600160a01b03838116600483015260248201869052909116906340c10f1990604401600060405180830381600087803b1580156114dd57600080fd5b505af11580156114f1573d6000803e3d6000fd5b50505050611563565b6015546016546040516340c10f1960e01b81526001600160a01b039182166004820152602481018690529116906340c10f1990604401600060405180830381600087803b15801561154a57600080fd5b505af115801561155e573d6000803e3d6000fd5b505050505b6115718761ffff168761187c565b61157b9086612947565b9450508080611589906128ef565b915050611368565b50821561160b576013546001600160a01b0316639dc29fac336040516001600160e01b031960e084901b1681526001600160a01b03909116600482015260248101869052604401600060405180830381600087803b1580156115f257600080fd5b505af1158015611606573d6000803e3d6000fd5b505050505b8515611674576016546001600160a01b0316635b51914233846040518363ffffffff1660e01b8152600401611641929190612a24565b600060405180830381600087803b15801561165b57600080fd5b505af115801561166f573d6000803e3d6000fd5b505050505b5050600b805460ff191690555050505050565b60006001600160a01b0382166116f25760405162461bcd60e51b815260206004820152602a60248201527f4552433732313a2062616c616e636520717565727920666f7220746865207a65604482015269726f206164647265737360b01b606482015260840161075b565b506001600160a01b031660009081526004602052604090205490565b6000546001600160a01b031633146117385760405162461bcd60e51b815260040161075b90612812565b6117426000611e7f565b565b606060028054610663906127d7565b61175e338383611ecf565b5050565b61176c3383611b82565b6117885760405162461bcd60e51b815260040161075b90612872565b610ca684848484611f9e565b6000818152600360205260409020546060906001600160a01b03166118135760405162461bcd60e51b815260206004820152602f60248201527f4552433732314d657461646174613a2055524920717565727920666f72206e6f60448201526e3732bc34b9ba32b73a103a37b5b2b760891b606482015260840161075b565b600061182a60408051602081019091526000815290565b9050600081511161184a5760405180602001604052806000815250611875565b8061185484611fd1565b604051602001611865929190612a7e565b6040516020818303038152906040525b9392505050565b600081831161188d5750600061064e565b6002600f54600161189e919061295f565b6118a89190612aa4565b83116118bf575069043c33c193756480000061064e565b6004600f5460036118d0919061295f565b6118da9190612aa4565b83116118f15750690878678326eac900000061064e565b50690ed2b525841adfc0000092915050565b6000546001600160a01b0316331461192d5760405162461bcd60e51b815260040161075b90612812565b6001600160a01b0381166119925760405162461bcd60e51b815260206004820152602660248201527f4f776e61626c653a206e6577206f776e657220697320746865207a65726f206160448201526564647265737360d01b606482015260840161075b565b61098681611e7f565b600054600160a01b900460ff16156119e85760405162461bcd60e51b815260206004820152601060248201526f14185d5cd8589b194e881c185d5cd95960821b604482015260640161075b565b6000805460ff60a01b1916600160a01b1790557f62e78cea01bee320cd4e420270b5ea74000d11b0c9f74754ebdbfc544b05a258611a233390565b6040516001600160a01b03909116815260200160405180910390a1565b60006001600160e01b031982166380ac58cd60e01b1480611a7157506001600160e01b03198216635b5e139f60e01b145b8061064e57506301ffc9a760e01b6001600160e01b031983161461064e565b600081815260056020526040902080546001600160a01b0319166001600160a01b0384169081179091558190611ac582610d5a565b6001600160a01b03167f8c5be1e5ebec7d5bd14f71427d1e84f3dd0314c0f7b2291e5b200ac8c7c3b92560405160405180910390a45050565b600054600160a01b900460ff16611b4e5760405162461bcd60e51b815260206004820152601460248201527314185d5cd8589b194e881b9bdd081c185d5cd95960621b604482015260640161075b565b6000805460ff60a01b191690557f5db9ee0a495bf2e6ff9c91a7834c1ba4fdd244a5e8aa4e537bd38aeae4b073aa33611a23565b6000818152600360205260408120546001600160a01b0316611bfb5760405162461bcd60e51b815260206004820152602c60248201527f4552433732313a206f70657261746f7220717565727920666f72206e6f6e657860448201526b34b9ba32b73a103a37b5b2b760a11b606482015260840161075b565b6000611c0683610d5a565b9050806001600160a01b0316846001600160a01b03161480611c415750836001600160a01b0316611c36846106e6565b6001600160a01b0316145b80611c7157506001600160a01b0380821660009081526006602090815260408083209388168352929052205460ff165b949350505050565b826001600160a01b0316611c8c82610d5a565b6001600160a01b031614611cf05760405162461bcd60e51b815260206004820152602560248201527f4552433732313a207472616e736665722066726f6d20696e636f72726563742060448201526437bbb732b960d91b606482015260840161075b565b6001600160a01b038216611d525760405162461bcd60e51b8152602060048201526024808201527f4552433732313a207472616e7366657220746f20746865207a65726f206164646044820152637265737360e01b606482015260840161075b565b611d5d8383836120cf565b611d68600082611a90565b6001600160a01b0383166000908152600460205260408120805460019290611d9190849061297e565b90915550506001600160a01b0382166000908152600460205260408120805460019290611dbf908490612947565b909155505060008181526003602052604080822080546001600160a01b0319166001600160a01b0386811691821790925591518493918716917fddf252ad1be2c89b69c2b068fc378daa952ba7f163c4a11628f55a4df523b3ef91a4505050565b600032611e2e60014361297e565b60405160609290921b6bffffffffffffffffffffffff191660208301524060348201524260548201526074810183905260940160408051601f19818403018152919052805160209091012092915050565b600080546001600160a01b038381166001600160a01b0319831681178455604051919092169283917f8be0079c531659141344cd1fd0a4f28419497f9722a3daafe3b4186f6b6457e09190a35050565b816001600160a01b0316836001600160a01b03161415611f315760405162461bcd60e51b815260206004820152601960248201527f4552433732313a20617070726f766520746f2063616c6c657200000000000000604482015260640161075b565b6001600160a01b03838116600081815260066020908152604080832094871680845294825291829020805460ff191686151590811790915591519182527f17307eab39ab6107e8899845ad3d59bd9653f200f220920489ca2b5937696c31910160405180910390a3505050565b611fa9848484611c79565b611fb584848484612187565b610ca65760405162461bcd60e51b815260040161075b90612ab8565b606081611ff55750506040805180820190915260018152600360fc1b602082015290565b8160005b811561201f5780612009816128ef565b91506120189050600a83612aa4565b9150611ff9565b60008167ffffffffffffffff81111561203a5761203a612686565b6040519080825280601f01601f191660200182016040528015612064576020820181803683370190505b5090505b8415611c715761207960018361297e565b9150612086600a866129f3565b612091906030612947565b60f81b8183815181106120a6576120a66128c3565b60200101906001600160f81b031916908160001a9053506120c8600a86612aa4565b9450612068565b6001600160a01b03831661212a5761212581600980546000838152600a60205260408120829055600182018355919091527f6e1540171b6c0c960b71a7020d9f60077f6af931a8bbf590da0223dacf75c7af0155565b61214d565b816001600160a01b0316836001600160a01b03161461214d5761214d8382612294565b6001600160a01b038216612164576108dd81612331565b826001600160a01b0316826001600160a01b0316146108dd576108dd82826123e0565b60006001600160a01b0384163b1561228957604051630a85bd0160e11b81526001600160a01b0385169063150b7a02906121cb903390899088908890600401612b0a565b602060405180830381600087803b1580156121e557600080fd5b505af1925050508015612215575060408051601f3d908101601f1916820190925261221291810190612b47565b60015b61226f573d808015612243576040519150601f19603f3d011682016040523d82523d6000602084013e612248565b606091505b5080516122675760405162461bcd60e51b815260040161075b90612ab8565b805181602001fd5b6001600160e01b031916630a85bd0160e11b149050611c71565b506001949350505050565b600060016122a184611687565b6122ab919061297e565b6000838152600860205260409020549091508082146122fe576001600160a01b03841660009081526007602090815260408083208584528252808320548484528184208190558352600890915290208190555b5060009182526008602090815260408084208490556001600160a01b039094168352600781528383209183525290812055565b6009546000906123439060019061297e565b6000838152600a60205260408120546009805493945090928490811061236b5761236b6128c3565b90600052602060002001549050806009838154811061238c5761238c6128c3565b6000918252602080832090910192909255828152600a909152604080822084905585825281205560098054806123c4576123c4612b64565b6001900381819060005260206000200160009055905550505050565b60006123eb83611687565b6001600160a01b039093166000908152600760209081526040808320868452825280832085905593825260089052919091209190915550565b6001600160e01b03198116811461098657600080fd5b60006020828403121561244c57600080fd5b813561187581612424565b60005b8381101561247257818101518382015260200161245a565b83811115610ca65750506000910152565b6000815180845261249b816020860160208601612457565b601f01601f19169290920160200192915050565b6020815260006118756020830184612483565b6000602082840312156124d457600080fd5b5035919050565b6001600160a01b038116811461098657600080fd5b60006020828403121561250257600080fd5b8135611875816124db565b6000806040838503121561252057600080fd5b823561252b816124db565b946020939093013593505050565b8035801515811461254957600080fd5b919050565b60006020828403121561256057600080fd5b61187582612539565b60008060006060848603121561257e57600080fd5b8335612589816124db565b92506020840135612599816124db565b929592945050506040919091013590565b6000806000604084860312156125bf57600080fd5b833567ffffffffffffffff808211156125d757600080fd5b818601915086601f8301126125eb57600080fd5b8135818111156125fa57600080fd5b8760208260051b850101111561260f57600080fd5b6020928301955093506126259186019050612539565b90509250925092565b6000806040838503121561264157600080fd5b8235915061265160208401612539565b90509250929050565b6000806040838503121561266d57600080fd5b8235612678816124db565b915061265160208401612539565b634e487b7160e01b600052604160045260246000fd5b600080600080608085870312156126b257600080fd5b84356126bd816124db565b935060208501356126cd816124db565b925060408501359150606085013567ffffffffffffffff808211156126f157600080fd5b818701915087601f83011261270557600080fd5b81358181111561271757612717612686565b604051601f8201601f19908116603f0116810190838211818310171561273f5761273f612686565b816040528281528a602084870101111561275857600080fd5b82602086016020830137600060208483010152809550505050505092959194509250565b6000806040838503121561278f57600080fd5b50508035926020909101359150565b600080604083850312156127b157600080fd5b82356127bc816124db565b915060208301356127cc816124db565b809150509250929050565b600181811c908216806127eb57607f821691505b6020821081141561280c57634e487b7160e01b600052602260045260246000fd5b50919050565b6020808252818101527f4f776e61626c653a2063616c6c6572206973206e6f7420746865206f776e6572604082015260600190565b60208082526011908201527010dbdb9d1c9858dd1cc81b9bdd081cd95d607a1b604082015260600190565b60208082526031908201527f4552433732313a207472616e736665722063616c6c6572206973206e6f74206f6040820152701ddb995c881b9bdc88185c1c1c9bdd9959607a1b606082015260800190565b634e487b7160e01b600052603260045260246000fd5b634e487b7160e01b600052601160045260246000fd5b6000600019821415612903576129036128d9565b5060010190565b60006020828403121561291c57600080fd5b815161ffff8116811461187557600080fd5b60006020828403121561294057600080fd5b5051919050565b6000821982111561295a5761295a6128d9565b500190565b6000816000190483118215151615612979576129796128d9565b500290565b600082821015612990576129906128d9565b500390565b600061ffff8083168185168083038211156129b2576129b26128d9565b01949350505050565b600061ffff808316818114156129d3576129d36128d9565b6001019392505050565b634e487b7160e01b600052601260045260246000fd5b600082612a0257612a026129dd565b500690565b600060208284031215612a1957600080fd5b8151611875816124db565b6001600160a01b038316815260406020808301829052835191830182905260009184820191906060850190845b81811015612a7157845161ffff1683529383019391830191600101612a51565b5090979650505050505050565b60008351612a90818460208801612457565b8351908301906129b2818360208801612457565b600082612ab357612ab36129dd565b500490565b60208082526032908201527f4552433732313a207472616e7366657220746f206e6f6e20455243373231526560408201527131b2b4bb32b91034b6b83632b6b2b73a32b960711b606082015260800190565b6001600160a01b0385811682528416602082015260408101839052608060608201819052600090612b3d90830184612483565b9695505050505050565b600060208284031215612b5957600080fd5b815161187581612424565b634e487b7160e01b600052603160045260246000fdfea2646970667358221220bdf06fc1741b98246695b668c7f75fe1b86305bddfa7c5652a34b2c16409205864736f6c63430008090033",
  "linkReferences": {},
  "deployedLinkReferences": {}
}