{
  "_format": "hh-sol-artifact-1",
  "contractName": "Traits",
  "sourceName": "contracts/staking/Traits.sol",
  "abi": [
    {
      "inputs": [],
      "stateMutability": "nonpayable",
      "type": "constructor"
    },
    {
      "anonymous": false,
      "inputs": [
        {
          "indexed": true,
          "internalType": "address",
          "name": "previousOwner",
          "type": "address"
        },
        {
          "indexed": true,
          "internalType": "address",
          "name": "newOwner",
          "type": "address"
        }
      ],
      "name": "OwnershipTransferred",
      "type": "event"
    },
    {
      "inputs": [],
      "name": "alienBodies",
      "outputs": [
        {
          "internalType": "uint256",
          "name": "",
          "type": "uint256"
        }
      ],
      "stateMutability": "view",
      "type": "function"
    },
    {
      "inputs": [
        {
          "internalType": "uint256",
          "name": "tokenId",
          "type": "uint256"
        }
      ],
      "name": "compileAttributes",
      "outputs": [
        {
          "internalType": "string",
          "name": "",
          "type": "string"
        }
      ],
      "stateMutability": "view",
      "type": "function"
    },
    {
      "inputs": [],
      "name": "cowboyBodies",
      "outputs": [
        {
          "internalType": "uint256",
          "name": "",
          "type": "uint256"
        }
      ],
      "stateMutability": "view",
      "type": "function"
    },
    {
      "inputs": [
        {
          "internalType": "uint256",
          "name": "tokenId",
          "type": "uint256"
        }
      ],
      "name": "drawSVG",
      "outputs": [
        {
          "internalType": "string",
          "name": "",
          "type": "string"
        }
      ],
      "stateMutability": "view",
      "type": "function"
    },
    {
      "inputs": [],
      "name": "owner",
      "outputs": [
        {
          "internalType": "address",
          "name": "",
          "type": "address"
        }
      ],
      "stateMutability": "view",
      "type": "function"
    },
    {
      "inputs": [],
      "name": "renounceOwnership",
      "outputs": [],
      "stateMutability": "nonpayable",
      "type": "function"
    },
    {
      "inputs": [
        {
          "internalType": "uint16",
          "name": "seed",
          "type": "uint16"
        },
        {
          "internalType": "uint8",
          "name": "traitType",
          "type": "uint8"
        }
      ],
      "name": "selectTrait",
      "outputs": [
        {
          "internalType": "uint8",
          "name": "",
          "type": "uint8"
        }
      ],
      "stateMutability": "view",
      "type": "function"
    },
    {
      "inputs": [
        {
          "internalType": "address",
          "name": "_wag",
          "type": "address"
        }
      ],
      "name": "setGame",
      "outputs": [],
      "stateMutability": "nonpayable",
      "type": "function"
    },
    {
      "inputs": [
        {
          "internalType": "uint8[]",
          "name": "_tType",
          "type": "uint8[]"
        },
        {
          "internalType": "uint8[]",
          "name": "_len",
          "type": "uint8[]"
        }
      ],
      "name": "setTraitCountForType",
      "outputs": [],
      "stateMutability": "nonpayable",
      "type": "function"
    },
    {
      "inputs": [
        {
          "internalType": "uint256",
          "name": "tokenId",
          "type": "uint256"
        }
      ],
      "name": "tokenURI",
      "outputs": [
        {
          "internalType": "string",
          "name": "",
          "type": "string"
        }
      ],
      "stateMutability": "view",
      "type": "function"
    },
    {
      "inputs": [
        {
          "internalType": "uint8",
          "name": "",
          "type": "uint8"
        }
      ],
      "name": "traitCountForType",
      "outputs": [
        {
          "internalType": "uint8",
          "name": "",
          "type": "uint8"
        }
      ],
      "stateMutability": "view",
      "type": "function"
    },
    {
      "inputs": [
        {
          "internalType": "uint8",
          "name": "",
          "type": "uint8"
        },
        {
          "internalType": "uint8",
          "name": "",
          "type": "uint8"
        }
      ],
      "name": "traitData",
      "outputs": [
        {
          "internalType": "string",
          "name": "name",
          "type": "string"
        },
        {
          "internalType": "string",
          "name": "png",
          "type": "string"
        }
      ],
      "stateMutability": "view",
      "type": "function"
    },
    {
      "inputs": [
        {
          "internalType": "address",
          "name": "newOwner",
          "type": "address"
        }
      ],
      "name": "transferOwnership",
      "outputs": [],
      "stateMutability": "nonpayable",
      "type": "function"
    },
    {
      "inputs": [
        {
          "internalType": "string",
          "name": "_alien",
          "type": "string"
        }
      ],
      "name": "uploadAlienBody",
      "outputs": [],
      "stateMutability": "nonpayable",
      "type": "function"
    },
    {
      "inputs": [
        {
          "internalType": "string",
          "name": "_cowboy",
          "type": "string"
        }
      ],
      "name": "uploadCowboyBody",
      "outputs": [],
      "stateMutability": "nonpayable",
      "type": "function"
    },
    {
      "inputs": [
        {
          "internalType": "string",
          "name": "_mutant",
          "type": "string"
        }
      ],
      "name": "uploadMutantBody",
      "outputs": [],
      "stateMutability": "nonpayable",
      "type": "function"
    },
    {
      "inputs": [
        {
          "internalType": "uint8",
          "name": "traitType",
          "type": "uint8"
        },
        {
          "internalType": "uint8[]",
          "name": "traitIds",
          "type": "uint8[]"
        },
        {
          "components": [
            {
              "internalType": "string",
              "name": "name",
              "type": "string"
            },
            {
              "internalType": "string",
              "name": "png",
              "type": "string"
            }
          ],
          "internalType": "struct Traits.Trait[]",
          "name": "traits",
          "type": "tuple[]"
        }
      ],
      "name": "uploadTraits",
      "outputs": [],
      "stateMutability": "nonpayable",
      "type": "function"
    },
    {
      "inputs": [],
      "name": "wagNFT",
      "outputs": [
        {
          "internalType": "contract IWildAbduction",
          "name": "",
          "type": "address"
        }
      ],
      "stateMutability": "view",
      "type": "function"
    }
  ],
  "bytecode": "0x600560018190556006610120908152652bb2b0b837b760d11b6101405260809081526003610160818152620546f760ec1b6101805260a0526101a08381526450616e747360d81b6101c05260c0526101e09081526212185d60ea1b6102005260e0526102606040526009610220908152684163636573736f727960b81b61024052610100526200009191908162000183565b506040805160c081018252600160808201818152600760fb1b60a0840152825282518084018452818152603760f81b6020828101919091528084019190915283518085018552828152601b60f91b81830152838501528351808501909452908352603560f81b9083015260608101919091526200011390600c906004620001da565b503480156200012157600080fd5b506200012d3362000133565b62000361565b600080546001600160a01b038381166001600160a01b0319831681178455604051919092169283917f8be0079c531659141344cd1fd0a4f28419497f9722a3daafe3b4186f6b6457e09190a35050565b8260058101928215620001c8579160200282015b82811115620001c85782518051620001b79184916020909101906200021f565b509160200191906001019062000197565b50620001d6929150620002aa565b5090565b8260048101928215620001c8579160200282015b82811115620001c857825180516200020e9184916020909101906200021f565b5091602001919060010190620001ee565b8280546200022d9062000324565b90600052602060002090601f0160209004810192826200025157600085556200029c565b82601f106200026c57805160ff19168380011785556200029c565b828001600101855582156200029c579182015b828111156200029c5782518255916020019190600101906200027f565b50620001d6929150620002cb565b80821115620001d6576000620002c18282620002e2565b50600101620002aa565b5b80821115620001d65760008155600101620002cc565b508054620002f09062000324565b6000825580601f1062000301575050565b601f016020900490600052602060002090810190620003219190620002cb565b50565b600181811c908216806200033957607f821691505b602082108114156200035b57634e487b7160e01b600052602260045260246000fd5b50919050565b612fbc80620003716000396000f3fe608060405234801561001057600080fd5b50600436106101155760003560e01c80639bf2ee35116100a2578063c87b56dd11610071578063c87b56dd14610240578063cce4a25a14610253578063d93ae3d914610266578063ee7bd58b14610279578063f2fde38b1461029c57600080fd5b80639bf2ee35146101d4578063a0f2f795146101f5578063a6b0969214610208578063bc1a36d21461022d57600080fd5b806368dba5e5116100e957806368dba5e514610161578063715018a6146101815780637abecb8614610189578063819912a21461019c5780638da5cb5b146101af57600080fd5b8062ecbfd11461011a578063269056991461012f57806330d8c213146101425780635acc964714610159575b600080fd5b61012d610128366004612136565b6102af565b005b61012d61013d36600461219a565b61036a565b6003545b6040519081526020015b60405180910390f35b600454610146565b61017461016f36600461220c565b6103d1565b6040516101509190612281565b61012d610f0b565b61017461019736600461220c565b610f41565b61012d6101aa36600461229b565b61157e565b6000546001600160a01b03165b6040516001600160a01b039091168152602001610150565b6101e76101e23660046122c4565b6115ca565b6040516101509291906122fd565b61012d61020336600461219a565b611701565b61021b61021636600461232b565b611768565b60405160ff9091168152602001610150565b61012d61023b36600461219a565b6117f6565b61017461024e36600461220c565b61182c565b6010546101bc906001600160a01b031681565b61012d61027436600461239c565b6119af565b61021b61028736600461241f565b600b6020526000908152604090205460ff1681565b61012d6102aa36600461229b565b611b9b565b6000546001600160a01b031633146102e25760405162461bcd60e51b81526004016102d99061243c565b60405180910390fd5b60005b82518110156103655781818151811061030057610300612471565b6020026020010151600b600085848151811061031e5761031e612471565b602002602001015160ff1660ff16815260200190815260200160002060006101000a81548160ff021916908360ff160217905550808061035d9061249d565b9150506102e5565b505050565b6000546001600160a01b031633146103945760405162461bcd60e51b81526004016102d99061243c565b60048054600181018255600091909152610365907f8a35acfbc15ff81a39ae7d344fd709f28e8600b4aa8c65c6b64bfe7fe36bd19b018383611f60565b6010546040516394e5684760e01b8152600481018390526060916000916001600160a01b03909116906394e56847906024016101006040518083038186803b15801561041c57600080fd5b505afa158015610430573d6000803e3d6000fd5b505050506040513d601f19601f8201168201806040525081019061045491906124d8565b90506060816000015115610aff576105e460056000018054610475906125a2565b80601f01602080910402602001604051908101604052809291908181526020018280546104a1906125a2565b80156104ee5780601f106104c3576101008083540402835291602001916104ee565b820191906000526020600020905b8154815290600101906020018083116104d157829003601f168201915b50506000808052600b6020527fdf7de25b7f1fd6d0b5205f0e18f1f35bd7b8d84cce336588d184533ce43a6f76546040890151600080516020612f678339815191529550919350610543925060ff16906125f3565b60ff16815260208101919091526040016000208054610561906125a2565b80601f016020809104026020016040519081016040528092919081815260200182805461058d906125a2565b80156105da5780601f106105af576101008083540402835291602001916105da565b820191906000526020600020905b8154815290600101906020018083116105bd57829003601f168201915b5050505050611c36565b6106da600560015b0180546105f8906125a2565b80601f0160208091040260200160405190810160405280929190818152602001828054610624906125a2565b80156106715780601f1061064657610100808354040283529160200191610671565b820191906000526020600020905b81548152906001019060200180831161065457829003601f168201915b505060016000908152600b6020527f72c6bfb7988af3a1efa6568f02a999bc52252641c659d85961ca3d372b57d5cf5460608a01517fbbc70db1b6c7afd11e79c0fb0051300458f1a3acb8ee9789d9b6b26c61ad9bc79550919350610543925060ff16906125f3565b6107bd600560020180546106ed906125a2565b80601f0160208091040260200160405190810160405280929190818152602001828054610719906125a2565b80156107665780601f1061073b57610100808354040283529160200191610766565b820191906000526020600020905b81548152906001019060200180831161074957829003601f168201915b505060026000908152600b6020527fa50eece07c7db1631545c0069bd8f5f54d5935e215d59097edf258a44ba916345460808b0151600080516020612f478339815191529550919350610543925060ff16906125f3565b6108a0600560030180546107d0906125a2565b80601f01602080910402602001604051908101604052809291908181526020018280546107fc906125a2565b80156108495780601f1061081e57610100808354040283529160200191610849565b820191906000526020600020905b81548152906001019060200180831161082c57829003601f168201915b505060036000908152600b6020527f64c15cc42be7899b001f818cf4433057002112c418d1d3a67cd5cb453051d33e5460a08c0151600080516020612ee78339815191529550919350610543925060ff16906125f3565b610996600560045b0180546108b4906125a2565b80601f01602080910402602001604051908101604052809291908181526020018280546108e0906125a2565b801561092d5780601f106109025761010080835404028352916020019161092d565b820191906000526020600020905b81548152906001019060200180831161091057829003601f168201915b505060046000908152600b6020527f12d0c11577e2f0950f57c455c117796550b79f444811db8ba2f69c57b646c7845460c08d01517fe1eb2b2161a492c07c5a334e48012567cba93ec021043f53c1955516a3c5a8419550919350610543925060ff16906125f3565b6040516020016109aa959493929190612615565b60408051601f19818403018152828252601054630803163f60e31b8452915190935083926001600160a01b0390921691634018b1f8916004808301926020929190829003018186803b1580156109ff57600080fd5b505afa158015610a13573d6000803e3d6000fd5b505050506040513d601f19601f82011682018060405250810190610a3791906126b4565b851115610a6357604051806040016040528060078152602001661123b2b710189160c91b815250610a84565b604051806040016040528060078152602001661123b2b710181160c91b8152505b8360200151610ab357604051806040016040528060088152602001671121b7bbb137bc9160c11b815250610ad5565b604051806040016040528060088152602001671126baba30b73a1160c11b8152505b604051602001610ae793929190612702565b60405160208183030381529060405292505050919050565b610be060056000018054610b12906125a2565b80601f0160208091040260200160405190810160405280929190818152602001828054610b3e906125a2565b8015610b8b5780601f10610b6057610100808354040283529160200191610b8b565b820191906000526020600020905b815481529060010190602001808311610b6e57829003601f168201915b50506000808052600b6020527fdf7de25b7f1fd6d0b5205f0e18f1f35bd7b8d84cce336588d184533ce43a6f765460a0890151600080516020612f678339815191529550919350610543925060ff16906125f3565b610bec600560016105ec565b610ccf60056002018054610bff906125a2565b80601f0160208091040260200160405190810160405280929190818152602001828054610c2b906125a2565b8015610c785780601f10610c4d57610100808354040283529160200191610c78565b820191906000526020600020905b815481529060010190602001808311610c5b57829003601f168201915b505060026000908152600b6020527fa50eece07c7db1631545c0069bd8f5f54d5935e215d59097edf258a44ba916345460408b0151600080516020612f478339815191529550919350610543925060ff16906125f3565b610db260056003018054610ce2906125a2565b80601f0160208091040260200160405190810160405280929190818152602001828054610d0e906125a2565b8015610d5b5780601f10610d3057610100808354040283529160200191610d5b565b820191906000526020600020905b815481529060010190602001808311610d3e57829003601f168201915b505060036000908152600b6020527f64c15cc42be7899b001f818cf4433057002112c418d1d3a67cd5cb453051d33e5460808c0151600080516020612ee78339815191529550919350610543925060ff16906125f3565b610dbe600560046108a8565b610e0b6040518060400160405280600b81526020016a416c7068612053636f726560a81b815250600c8960e0015160ff1660048110610dff57610dff612471565b018054610561906125a2565b604051602001610e2096959493929190612793565b604051602081830303815290604052905060105460408051630803163f60e31b8152905183926001600160a01b031691634018b1f8916004808301926020929190829003018186803b158015610e7557600080fd5b505afa158015610e89573d6000803e3d6000fd5b505050506040513d601f19601f82011682018060405250810190610ead91906126b4565b851115610ed957604051806040016040528060078152602001661123b2b710189160c91b815250610efa565b604051806040016040528060078152602001661123b2b710181160c91b8152505b604051602001610ae7929190612858565b6000546001600160a01b03163314610f355760405162461bcd60e51b81526004016102d99061243c565b610f3f6000611c62565b565b6010546040516394e5684760e01b8152600481018390526060916000916001600160a01b03909116906394e56847906024016101006040518083038186803b158015610f8c57600080fd5b505afa158015610fa0573d6000803e3d6000fd5b505050506040513d601f19601f82011682018060405250810190610fc491906124d8565b905060006040518060200160405280600081525090508160200151156113595761107760028054610ff4906125a2565b80601f0160208091040260200160405190810160405280929190818152602001828054611020906125a2565b801561106d5780601f106110425761010080835404028352916020019161106d565b820191906000526020600020905b81548152906001019060200180831161105057829003601f168201915b5050505050611cb2565b6000808052600a602090815260408581015160ff168352600080516020612f6783398151915290915290819020815180830190925280546111da929190829082906110c1906125a2565b80601f01602080910402602001604051908101604052809291908181526020018280546110ed906125a2565b801561113a5780601f1061110f5761010080835404028352916020019161113a565b820191906000526020600020905b81548152906001019060200180831161111d57829003601f168201915b50505050508152602001600182018054611153906125a2565b80601f016020809104026020016040519081016040528092919081815260200182805461117f906125a2565b80156111cc5780601f106111a1576101008083540402835291602001916111cc565b820191906000526020600020905b8154815290600101906020018083116111af57829003601f168201915b505050505081525050611cdb565b60016000908152600a6020908152606086015160ff1682527fbbc70db1b6c7afd11e79c0fb0051300458f1a3acb8ee9789d9b6b26c61ad9bc7905260409081902081518083019092528054611238929190829082906110c1906125a2565b60026000908152600a6020908152608087015160ff168252600080516020612f47833981519152905260409081902081518083019092528054611284929190829082906110c1906125a2565b60036000908152600a602090815260a088015160ff168252600080516020612ee78339815191529052604090819020815180830190925280546112d0929190829082906110c1906125a2565b60046000908152600a602090815260c089015160ff1682527fe1eb2b2161a492c07c5a334e48012567cba93ec021043f53c1955516a3c5a84190526040908190208151808301909252805461132e929190829082906110c1906125a2565b604051602001611343969594939291906128e0565b604051602081830303815290604052905061156d565b815161139957611394600461136f60058761295f565b8154811061137f5761137f612471565b906000526020600020018054610ff4906125a2565b6113a8565b6113a8600361136f818761295f565b6000808052600a602090815260408581015160ff168352600080516020612f6783398151915290915290819020815180830190925280546113f2929190829082906110c1906125a2565b60016000908152600a6020908152606086015160ff1682527fbbc70db1b6c7afd11e79c0fb0051300458f1a3acb8ee9789d9b6b26c61ad9bc7905260409081902081518083019092528054611450929190829082906110c1906125a2565b60026000908152600a6020908152608087015160ff168252600080516020612f4783398151915290526040908190208151808301909252805461149c929190829082906110c1906125a2565b60036000908152600a602090815260a088015160ff168252600080516020612ee78339815191529052604090819020815180830190925280546114e8929190829082906110c1906125a2565b60046000908152600a602090815260c089015160ff1682527fe1eb2b2161a492c07c5a334e48012567cba93ec021043f53c1955516a3c5a841905260409081902081518083019092528054611546929190829082906110c1906125a2565b60405160200161155b969594939291906128e0565b60405160208183030381529060405290505b80604051602001610ae79190612973565b6000546001600160a01b031633146115a85760405162461bcd60e51b81526004016102d99061243c565b601080546001600160a01b0319166001600160a01b0392909216919091179055565b600a6020908152600092835260408084209091529082529020805481906115f0906125a2565b80601f016020809104026020016040519081016040528092919081815260200182805461161c906125a2565b80156116695780601f1061163e57610100808354040283529160200191611669565b820191906000526020600020905b81548152906001019060200180831161164c57829003601f168201915b50505050509080600101805461167e906125a2565b80601f01602080910402602001604051908101604052809291908181526020018280546116aa906125a2565b80156116f75780601f106116cc576101008083540402835291602001916116f7565b820191906000526020600020905b8154815290600101906020018083116116da57829003601f168201915b5050505050905082565b6000546001600160a01b0316331461172b5760405162461bcd60e51b81526004016102d99061243c565b60038054600181018255600091909152610365907fc2575a0e9e593c00f959f8c92f12db2869c3395a3b0502d05e2516446f71f85b018383611f60565b60006001548260ff1614156117cd576000611784606485612a60565b61ffff169050605f81111561179d5760009150506117f0565b60508111156117b05760019150506117f0565b60328111156117c35760029150506117f0565b60039150506117f0565b60ff8083166000908152600b6020526040902054166117ec8185612a60565b9150505b92915050565b6000546001600160a01b031633146118205760405162461bcd60e51b81526004016102d99061243c565b61036560028383611f60565b6010546040516394e5684760e01b8152600481018390526060916000916001600160a01b03909116906394e56847906024016101006040518083038186803b15801561187757600080fd5b505afa15801561188b573d6000803e3d6000fd5b505050506040513d601f19601f820116820180604052508101906118af91906124d8565b9050600081602001516118e25760405180604001604052806008815260200167436f77626f79202360c01b815250611904565b604051806040016040528060088152602001674d7574616e74202360c01b8152505b61190d85611cf2565b61191e61191987610f41565b611df8565b611927876103d1565b60405160200161193a9493929190612b50565b604051602081830303815290604052905081600001516119965761195d84611cf2565b61196961191986610f41565b611972866103d1565b60405160200161198493929190612bf6565b60405160208183030381529060405290505b61199f81611df8565b604051602001610ae79190612c93565b6000546001600160a01b031633146119d95760405162461bcd60e51b81526004016102d99061243c565b828114611a1c5760405162461bcd60e51b81526020600482015260116024820152704d69736d61746368656420696e7075747360781b60448201526064016102d9565b60005b81811015611b93576040518060400160405280848484818110611a4457611a44612471565b9050602002810190611a569190612cd8565b611a609080612cf8565b8080601f016020809104026020016040519081016040528093929190818152602001838380828437600092019190915250505090825250602001848484818110611aac57611aac612471565b9050602002810190611abe9190612cd8565b611acc906020810190612cf8565b8080601f016020809104026020016040519081016040528093929190818152602001838380828437600092018290525093909452505060ff89168152600a602052604081209150878785818110611b2557611b25612471565b9050602002016020810190611b3a919061241f565b60ff168152602080820192909252604001600020825180519192611b6392849290910190611fe4565b506020828101518051611b7c9260018501920190611fe4565b509050508080611b8b9061249d565b915050611a1f565b505050505050565b6000546001600160a01b03163314611bc55760405162461bcd60e51b81526004016102d99061243c565b6001600160a01b038116611c2a5760405162461bcd60e51b815260206004820152602660248201527f4f776e61626c653a206e6577206f776e657220697320746865207a65726f206160448201526564647265737360d01b60648201526084016102d9565b611c3381611c62565b50565b60608282604051602001611c4b929190612d3f565b604051602081830303815290604052905092915050565b600080546001600160a01b038381166001600160a01b0319831681178455604051919092169283917f8be0079c531659141344cd1fd0a4f28419497f9722a3daafe3b4186f6b6457e09190a35050565b606081604051602001611cc59190612db0565b6040516020818303038152906040529050919050565b60608160200151604051602001611cc59190612db0565b606081611d165750506040805180820190915260018152600360fc1b602082015290565b8160005b8115611d405780611d2a8161249d565b9150611d399050600a83612e84565b9150611d1a565b60008167ffffffffffffffff811115611d5b57611d5b61206d565b6040519080825280601f01601f191660200182016040528015611d85576020820181803683370190505b5090505b8415611df057611d9a600183612e98565b9150611da7600a8661295f565b611db2906030612eaf565b60f81b818381518110611dc757611dc7612471565b60200101906001600160f81b031916908160001a905350611de9600a86612e84565b9450611d89565b949350505050565b6060815160001415611e1857505060408051602081019091526000815290565b6000604051806060016040528060408152602001612f076040913990506000600384516002611e479190612eaf565b611e519190612e84565b611e5c906004612ec7565b90506000611e6b826020612eaf565b67ffffffffffffffff811115611e8357611e8361206d565b6040519080825280601f01601f191660200182016040528015611ead576020820181803683370190505b509050818152600183018586518101602084015b81831015611f1b5760039283018051603f601282901c811687015160f890811b8552600c83901c8216880151811b6001860152600683901c8216880151811b60028601529116860151901b93820193909352600401611ec1565b600389510660018114611f355760028114611f4657611f52565b613d3d60f01b600119830152611f52565b603d60f81b6000198301525b509398975050505050505050565b828054611f6c906125a2565b90600052602060002090601f016020900481019282611f8e5760008555611fd4565b82601f10611fa75782800160ff19823516178555611fd4565b82800160010185558215611fd4579182015b82811115611fd4578235825591602001919060010190611fb9565b50611fe0929150612058565b5090565b828054611ff0906125a2565b90600052602060002090601f0160209004810192826120125760008555611fd4565b82601f1061202b57805160ff1916838001178555611fd4565b82800160010185558215611fd4579182015b82811115611fd457825182559160200191906001019061203d565b5b80821115611fe05760008155600101612059565b634e487b7160e01b600052604160045260246000fd5b60ff81168114611c3357600080fd5b600082601f8301126120a357600080fd5b8135602067ffffffffffffffff808311156120c0576120c061206d565b8260051b604051601f19603f830116810181811084821117156120e5576120e561206d565b60405293845285810183019383810192508785111561210357600080fd5b83870191505b8482101561212b57813561211c81612083565b83529183019190830190612109565b979650505050505050565b6000806040838503121561214957600080fd5b823567ffffffffffffffff8082111561216157600080fd5b61216d86838701612092565b9350602085013591508082111561218357600080fd5b5061219085828601612092565b9150509250929050565b600080602083850312156121ad57600080fd5b823567ffffffffffffffff808211156121c557600080fd5b818501915085601f8301126121d957600080fd5b8135818111156121e857600080fd5b8660208285010111156121fa57600080fd5b60209290920196919550909350505050565b60006020828403121561221e57600080fd5b5035919050565b60005b83811015612240578181015183820152602001612228565b8381111561224f576000848401525b50505050565b6000815180845261226d816020860160208601612225565b601f01601f19169290920160200192915050565b6020815260006122946020830184612255565b9392505050565b6000602082840312156122ad57600080fd5b81356001600160a01b038116811461229457600080fd5b600080604083850312156122d757600080fd5b82356122e281612083565b915060208301356122f281612083565b809150509250929050565b6040815260006123106040830185612255565b82810360208401526123228185612255565b95945050505050565b6000806040838503121561233e57600080fd5b823561ffff811681146122e257600080fd5b60008083601f84011261236257600080fd5b50813567ffffffffffffffff81111561237a57600080fd5b6020830191508360208260051b850101111561239557600080fd5b9250929050565b6000806000806000606086880312156123b457600080fd5b85356123bf81612083565b9450602086013567ffffffffffffffff808211156123dc57600080fd5b6123e889838a01612350565b9096509450604088013591508082111561240157600080fd5b5061240e88828901612350565b969995985093965092949392505050565b60006020828403121561243157600080fd5b813561229481612083565b6020808252818101527f4f776e61626c653a2063616c6c6572206973206e6f7420746865206f776e6572604082015260600190565b634e487b7160e01b600052603260045260246000fd5b634e487b7160e01b600052601160045260246000fd5b60006000198214156124b1576124b1612487565b5060010190565b805180151581146124c857600080fd5b919050565b80516124c881612083565b60006101008083850312156124ec57600080fd5b6040519081019067ffffffffffffffff8211818310171561250f5761250f61206d565b8160405261251c846124b8565b815261252a602085016124b8565b60208201526040840151915061253f82612083565b816040820152612551606085016124cd565b6060820152612562608085016124cd565b608082015261257360a085016124cd565b60a082015261258460c085016124cd565b60c082015261259560e085016124cd565b60e0820152949350505050565b600181811c908216806125b657607f821691505b602082108114156125d757634e487b7160e01b600052602260045260246000fd5b50919050565b634e487b7160e01b600052601260045260246000fd5b600060ff831680612606576126066125dd565b8060ff84160691505092915050565b60008651612627818460208b01612225565b8083019050600b60fa1b8082528751612647816001850160208c01612225565b600192019182018190528651612664816002850160208b01612225565b600292019182018190528551612681816003850160208a01612225565b60039201918201819052845161269e816004850160208901612225565b6004920191820152600501979650505050505050565b6000602082840312156126c657600080fd5b5051919050565b7f7b2274726169745f74797065223a2247656e65726174696f6e222c2276616c7581526232911d60e91b602082015260230190565b605b60f81b81526000845161271e816001850160208901612225565b61272c6001828501016126cd565b9050845161273e818360208901612225565b7f7d2c7b2274726169745f74797065223a2254797065222c2276616c7565223a009101908152835161277781601f840160208801612225565b617d5d60f01b601f929091019182015260210195945050505050565b6000875160206127a68285838d01612225565b8184019150600b60fa1b80835289516127c58160018601858e01612225565b6001930192830181905288516127e18160028601858d01612225565b6002930192830181905287516127fd8160038601858c01612225565b6003930192830181905286516128198160048601858b01612225565b600493019283015284516128338160058501848901612225565b612849600582850101600b60fa1b815260010190565b9b9a5050505050505050505050565b605b60f81b815260008351612874816001850160208801612225565b6128826001828501016126cd565b90508351612894818360208801612225565b7f7d2c7b2274726169745f74797065223a2254797065222c2276616c7565223a009101908152661120b634b2b71160c91b601f820152617d5d60f01b6026820152602801949350505050565b6000875160206128f38285838d01612225565b8851918401916129068184848d01612225565b88519201916129188184848c01612225565b875192019161292a8184848b01612225565b865192019161293c8184848a01612225565b855192019161294e8184848901612225565b919091019998505050505050505050565b60008261296e5761296e6125dd565b500690565b7f3c7376672069643d22636861726163746572222077696474683d22313030252281527f206865696768743d2231303025222076657273696f6e3d22312e31222076696560208201527f77426f783d223020302034302034302220786d6c6e733d22687474703a2f2f7760408201527f77772e77332e6f72672f323030302f7376672220786d6c6e733a786c696e6b3d60608201527f22687474703a2f2f7777772e77332e6f72672f313939392f786c696e6b223e00608082015260008251612a4381609f850160208701612225565b651e17b9bb339f60d11b609f93909101928301525060a501919050565b600061ffff80841680612a7557612a756125dd565b92169190910692915050565b7f222c20226465736372697074696f6e223a202254616b6520636f76657221204181527f2073706563696573206f6620756e6964656e7469666961626c6520637265617460208201527f75726573206861766520736574746c656420746865697220737461727368697060408201527f2061626f76652074686520457468657265756d2057696c6420576573742e222c60608201527f2022696d616765223a2022646174613a696d6167652f7376672b786d6c3b62616080820152641cd94d8d0b60da1b60a082015260a50190565b693d913730b6b2911d101160b11b81528451600090612b7681600a850160208a01612225565b855190830190612b8d81600a840160208a01612225565b612b9b600a82840101612a81565b9150508451612bae818360208901612225565b6f1116101130ba3a3934b13aba32b9911d60811b91019081528351612bda816010840160208801612225565b607d60f81b601092909101918201526011019695505050505050565b693d913730b6b2911d101160b11b815266416c69656e202360c81b600a8201528351600090612c2c816011850160208901612225565b612c3a601182850101612a81565b90508451612c4c818360208901612225565b6f1116101130ba3a3934b13aba32b9911d60811b91019081528351612c78816010840160208801612225565b607d60f81b6010929091019182015260110195945050505050565b7f646174613a6170706c69636174696f6e2f6a736f6e3b6261736536342c000000815260008251612ccb81601d850160208701612225565b91909101601d0192915050565b60008235603e19833603018112612cee57600080fd5b9190910192915050565b6000808335601e19843603018112612d0f57600080fd5b83018035915067ffffffffffffffff821115612d2a57600080fd5b60200191503681900382131561239557600080fd5b6e3d913a3930b4ba2fba3cb832911d1160891b81528251600090612d6a81600f850160208801612225565b6a1116113b30b63ab2911d1160a91b600f918401918201528351612d9581601a840160208801612225565b61227d60f01b601a9290910191820152601c01949350505050565b7f3c696d61676520783d22342220793d2234222077696474683d2234322220686581527f696768743d2234322220696d6167652d72656e646572696e673d22706978656c60208201527f6174656422207072657365727665417370656374526174696f3d22784d69645960408201527f4d69642220786c696e6b3a687265663d22646174613a696d6167652f706e673b60608201526618985cd94d8d0b60ca1b608082015260008251612e6a816087850160208701612225565b6211179f60e91b6087939091019283015250608a01919050565b600082612e9357612e936125dd565b500490565b600082821015612eaa57612eaa612487565b500390565b60008219821115612ec257612ec2612487565b500190565b6000816000190483118215151615612ee157612ee1612487565b50029056fea856840544dc26124927add067d799967eac11be13e14d82cc281ea46fa397594142434445464748494a4b4c4d4e4f505152535455565758595a6162636465666768696a6b6c6d6e6f707172737475767778797a303132333435363738392b2fbff4442b8ed600beeb8e26b1279a0f0d14c6edfaec26d968ee13c86f7d4c2ba813da86008ba1c6922daee3e07db95305ef49ebced9f5467a0b8613fcc6b343e3a264697066735822122034d7759d059be1ca723b6a2878e3d740ee3c6c3a7aea348f82f57577b923562b64736f6c63430008090033",
  "linkReferences": {},
  "deployedLinkReferences": {}
}