{
  "_format": "hh-sol-artifact-1",
  "contractName": "FastDraw",
  "sourceName": "contracts/staking/FastDraw.sol",
  "abi": [
    {
      "inputs": [
        {
          "internalType": "address",
          "name": "_land",
          "type": "address"
        }
      ],
      "stateMutability": "nonpayable",
      "type": "constructor"
    },
    {
      "anonymous": false,
      "inputs": [
        {
          "indexed": false,
          "internalType": "address",
          "name": "owner",
          "type": "address"
        },
        {
          "indexed": false,
          "internalType": "uint256",
          "name": "amount",
          "type": "uint256"
        }
      ],
      "name": "BalanceWithdraw",
      "type": "event"
    },
    {
      "anonymous": false,
      "inputs": [
        {
          "indexed": false,
          "internalType": "address",
          "name": "owner",
          "type": "address"
        },
        {
          "indexed": false,
          "internalType": "uint256",
          "name": "amount",
          "type": "uint256"
        }
      ],
      "name": "BetLost",
      "type": "event"
    },
    {
      "anonymous": false,
      "inputs": [
        {
          "indexed": false,
          "internalType": "address",
          "name": "owner",
          "type": "address"
        },
        {
          "indexed": false,
          "internalType": "uint256",
          "name": "amount",
          "type": "uint256"
        }
      ],
      "name": "BetWon",
      "type": "event"
    },
    {
      "anonymous": false,
      "inputs": [
        {
          "indexed": true,
          "internalType": "address",
          "name": "previousOwner",
          "type": "address"
        },
        {
          "indexed": true,
          "internalType": "address",
          "name": "newOwner",
          "type": "address"
        }
      ],
      "name": "OwnershipTransferred",
      "type": "event"
    },
    {
      "anonymous": false,
      "inputs": [
        {
          "indexed": false,
          "internalType": "address",
          "name": "account",
          "type": "address"
        }
      ],
      "name": "Paused",
      "type": "event"
    },
    {
      "anonymous": false,
      "inputs": [
        {
          "indexed": false,
          "internalType": "address",
          "name": "owner",
          "type": "address"
        },
        {
          "indexed": false,
          "internalType": "uint256",
          "name": "amount",
          "type": "uint256"
        }
      ],
      "name": "TransferDone",
      "type": "event"
    },
    {
      "anonymous": false,
      "inputs": [
        {
          "indexed": false,
          "internalType": "address",
          "name": "account",
          "type": "address"
        }
      ],
      "name": "Unpaused",
      "type": "event"
    },
    {
      "anonymous": false,
      "inputs": [
        {
          "indexed": false,
          "internalType": "address",
          "name": "owner",
          "type": "address"
        },
        {
          "indexed": false,
          "internalType": "uint256",
          "name": "amount",
          "type": "uint256"
        }
      ],
      "name": "WalletFunded",
      "type": "event"
    },
    {
      "inputs": [],
      "name": "GetAllowance",
      "outputs": [
        {
          "internalType": "uint256",
          "name": "",
          "type": "uint256"
        }
      ],
      "stateMutability": "view",
      "type": "function"
    },
    {
      "inputs": [
        {
          "internalType": "uint256",
          "name": "_amount",
          "type": "uint256"
        }
      ],
      "name": "addToBalance",
      "outputs": [],
      "stateMutability": "payable",
      "type": "function"
    },
    {
      "inputs": [
        {
          "internalType": "address",
          "name": "",
          "type": "address"
        }
      ],
      "name": "bank",
      "outputs": [
        {
          "internalType": "address",
          "name": "owner",
          "type": "address"
        },
        {
          "internalType": "uint256",
          "name": "balance",
          "type": "uint256"
        }
      ],
      "stateMutability": "view",
      "type": "function"
    },
    {
      "inputs": [],
      "name": "endFastDraw",
      "outputs": [],
      "stateMutability": "nonpayable",
      "type": "function"
    },
    {
      "inputs": [],
      "name": "fast_draw_state",
      "outputs": [
        {
          "internalType": "enum FastDraw.FAST_DRAW_STATE",
          "name": "",
          "type": "uint8"
        }
      ],
      "stateMutability": "view",
      "type": "function"
    },
    {
      "inputs": [],
      "name": "getDistributedLand",
      "outputs": [
        {
          "internalType": "uint256",
          "name": "",
          "type": "uint256"
        }
      ],
      "stateMutability": "view",
      "type": "function"
    },
    {
      "inputs": [],
      "name": "getUserBalance",
      "outputs": [
        {
          "internalType": "uint256",
          "name": "",
          "type": "uint256"
        }
      ],
      "stateMutability": "view",
      "type": "function"
    },
    {
      "inputs": [],
      "name": "landDistributed",
      "outputs": [
        {
          "internalType": "uint256",
          "name": "",
          "type": "uint256"
        }
      ],
      "stateMutability": "view",
      "type": "function"
    },
    {
      "inputs": [],
      "name": "owner",
      "outputs": [
        {
          "internalType": "address",
          "name": "",
          "type": "address"
        }
      ],
      "stateMutability": "view",
      "type": "function"
    },
    {
      "inputs": [],
      "name": "paused",
      "outputs": [
        {
          "internalType": "bool",
          "name": "",
          "type": "bool"
        }
      ],
      "stateMutability": "view",
      "type": "function"
    },
    {
      "inputs": [
        {
          "internalType": "uint256",
          "name": "amount",
          "type": "uint256"
        }
      ],
      "name": "placeBet",
      "outputs": [],
      "stateMutability": "nonpayable",
      "type": "function"
    },
    {
      "inputs": [],
      "name": "renounceOwnership",
      "outputs": [],
      "stateMutability": "nonpayable",
      "type": "function"
    },
    {
      "inputs": [],
      "name": "startFastDraw",
      "outputs": [],
      "stateMutability": "nonpayable",
      "type": "function"
    },
    {
      "inputs": [
        {
          "internalType": "address",
          "name": "newOwner",
          "type": "address"
        }
      ],
      "name": "transferOwnership",
      "outputs": [],
      "stateMutability": "nonpayable",
      "type": "function"
    },
    {
      "inputs": [
        {
          "internalType": "uint256",
          "name": "amount",
          "type": "uint256"
        }
      ],
      "name": "withdrawFromBalance",
      "outputs": [],
      "stateMutability": "nonpayable",
      "type": "function"
    }
  ],
  "bytecode": "0x608060405234801561001057600080fd5b506040516112c93803806112c983398101604081905261002f916100e4565b61003833610094565b6000805460ff60a01b19169055600680546001919060ff191682800217905550600180546001600160a01b039092166001600160a01b0319928316811790915560028054909216179055632cb417806004556000600355610114565b600080546001600160a01b038381166001600160a01b0319831681178455604051919092169283917f8be0079c531659141344cd1fd0a4f28419497f9722a3daafe3b4186f6b6457e09190a35050565b6000602082840312156100f657600080fd5b81516001600160a01b038116811461010d57600080fd5b9392505050565b6111a6806101236000396000f3fe6080604052600436106100e85760003560e01c80638a19e3551161008a578063b7013dc111610059578063b7013dc114610272578063ef30ecac14610297578063f2fde38b146102b7578063fbbecf69146102d757600080fd5b80638a19e355146101fb5780638da5cb5b1461020e5780638fb43a9a14610236578063acbc02b71461024b57600080fd5b8063529a1baf116100c6578063529a1baf1461014857806353edc614146101a75780635c975abb146101bc578063715018a6146101e657600080fd5b806310fe7c48146100ed5780632e1883f51461010f5780634145420e14610133575b600080fd5b3480156100f957600080fd5b5061010d610108366004611012565b6102ed565b005b34801561011b57600080fd5b506003545b6040519081526020015b60405180910390f35b34801561013f57600080fd5b5061010d6105ff565b34801561015457600080fd5b5061018861016336600461102b565b600560205260009081526040902080546001909101546001600160a01b039091169082565b604080516001600160a01b03909316835260208301919091520161012a565b3480156101b357600080fd5b506101206106a5565b3480156101c857600080fd5b50600054600160a01b900460ff16604051901515815260200161012a565b3480156101f257600080fd5b5061010d610733565b61010d610209366004611012565b610769565b34801561021a57600080fd5b506000546040516001600160a01b03909116815260200161012a565b34801561024257600080fd5b5061010d610ac2565b34801561025757600080fd5b506006546102659060ff1681565b60405161012a9190611071565b34801561027e57600080fd5b5033600090815260056020526040902060010154610120565b3480156102a357600080fd5b5061010d6102b2366004611012565b610b66565b3480156102c357600080fd5b5061010d6102d236600461102b565b610d7c565b3480156102e357600080fd5b5061012060035481565b8061271014806102fe575080617530145b8061030a57508061ea60145b61035b5760405162461bcd60e51b815260206004820152601760248201527f496e76616c696420616d6f756e74206f66204c414e442100000000000000000060448201526064015b60405180910390fd5b600060065460ff1660028111156103745761037461105b565b146103c15760405162461bcd60e51b815260206004820152601d60248201527f4661737420447261772069732063757272656e746c7920636c6f7365640000006044820152606401610352565b336000908152600560205260409020600101548111156104325760405162461bcd60e51b815260206004820152602660248201527f506c656173652066756e6420796f75722077616c6c657420746f20706172746960448201526563697061746560d01b6064820152608401610352565b60045460035461044290836110af565b111561049f5760405162461bcd60e51b815260206004820152602660248201527f4e6f7420656e6f756768204c414e44206c65667420746f2062652064697374726044820152651a589d5d195960d21b6064820152608401610352565b60006104aa42610e17565b905060056104b9600a836110c7565b101561053d5733600090815260056020526040812060010180548492906104e19084906110af565b9250508190555081600360008282546104fa91906110af565b909155505060408051338152602081018490527ffe23c6d15fc15e80d0d3b6b59122e78175084270ba5370c378f9e20e4ee31e0691015b60405180910390a15050565b336000908152600560205260408120600101805484929061055f9084906110e9565b9091555050600254604051632770a7eb60e21b8152306004820152602481018490526001600160a01b0390911690639dc29fac90604401600060405180830381600087803b1580156105b057600080fd5b505af11580156105c4573d6000803e3d6000fd5b505060408051338152602081018690527fcb9c7189736051e86837ee4847c751bad47c86cb506933875ff8fabf9eeda0089350019050610531565b6000546001600160a01b031633146106295760405162461bcd60e51b815260040161035290611100565b600060065460ff1660028111156106425761064261105b565b1461068f5760405162461bcd60e51b815260206004820181905260248201527f43616e27742073746172742061206e65772066617374206472617720796574216044820152606401610352565b600680546001919060ff191682805b0217905550565b600154604051636eb1769f60e11b8152336004820181905230602483015260009290916001600160a01b039091169063dd62ed3e9060440160206040518083038186803b1580156106f557600080fd5b505afa158015610709573d6000803e3d6000fd5b505050506040513d601f19601f8201168201806040525081019061072d9190611135565b91505090565b6000546001600160a01b0316331461075d5760405162461bcd60e51b815260040161035290611100565b6107676000610e76565b565b336127108210156107cb5760405162461bcd60e51b815260206004820152602660248201527f4d696e696d756d2066756e64696e6720616d6f756e742069732031302c30303060448201526508091310539160d21b6064820152608401610352565b600154604051636eb1769f60e11b81526001600160a01b0383811660048301523060248301529091169063dd62ed3e9060440160206040518083038186803b15801561081657600080fd5b505afa15801561082a573d6000803e3d6000fd5b505050506040513d601f19601f8201168201806040525081019061084e9190611135565b8211156108af5760405162461bcd60e51b815260206004820152602960248201527f506c6561736520617070726f766520746f6b656e73206265666f7265207472616044820152686e7366657272696e6760b81b6064820152608401610352565b6001546040516370a0823160e01b81526001600160a01b038381166004830152909116906370a082319060240160206040518083038186803b1580156108f457600080fd5b505afa158015610908573d6000803e3d6000fd5b505050506040513d601f19601f8201168201806040525081019061092c9190611135565b82111561098e5760405162461bcd60e51b815260206004820152602a60248201527f596f7520646f206e6f74206861766520656e6f75676820244c414e4420666f72604482015269081d1a1a5cc818d85b1b60b21b6064820152608401610352565b6001546040516323b872dd60e01b81526001600160a01b03838116600483015230602483015260448201859052909116906323b872dd90606401602060405180830381600087803b1580156109e257600080fd5b505af11580156109f6573d6000803e3d6000fd5b505050506040513d601f19601f82011682018060405250810190610a1a919061114e565b50336000818152600560209081526040918290206001015482518084019093529282528101610a4985846110af565b905233600081815260056020908152604091829020845181546001600160a01b0319166001600160a01b039091161781559381015160019094019390935580519182529181018590527f297a9dc454ac47d2d471c4c4dd7861ed6d621bf0891b28859cb3b880b7ff1a9f910160405180910390a1505050565b6000546001600160a01b03163314610aec5760405162461bcd60e51b815260040161035290611100565b600160065460ff166002811115610b0557610b0561105b565b14610b525760405162461bcd60e51b815260206004820181905260248201527f43616e27742073746172742061206e65772066617374206472617720796574216044820152606401610352565b600680546000919060ff191660018361069e565b60008111610bc55760405162461bcd60e51b815260206004820152602660248201527f506c656173652063686f6f736520616e20616d6f756e7420677265617465722060448201526507468616e20360d41b6064820152608401610352565b33600090815260056020526040902060010154811115610c1c5760405162461bcd60e51b8152602060048201526012602482015271496e73756666696369656e742066756e647360701b6044820152606401610352565b6001546040516370a0823160e01b81523060048201526000916001600160a01b0316906370a082319060240160206040518083038186803b158015610c6057600080fd5b505afa158015610c74573d6000803e3d6000fd5b505050506040513d601f19601f82011682018060405250810190610c989190611135565b905081811015610d15576000610cae82846110e9565b6002546040516340c10f1960e01b8152336004820152602481018390529192506001600160a01b0316906340c10f1990604401600060405180830381600087803b158015610cfb57600080fd5b505af1158015610d0f573d6000803e3d6000fd5b50505050505b610d1f3382610ec6565b3360009081526005602052604081206001018054849290610d419084906110e9565b909155505060408051338152602081018490527f8777844761eb456b028cf7f87fc8dcb146ad8eeafbc6f80f2d006e5cd9e5a7459101610531565b6000546001600160a01b03163314610da65760405162461bcd60e51b815260040161035290611100565b6001600160a01b038116610e0b5760405162461bcd60e51b815260206004820152602660248201527f4f776e61626c653a206e6577206f776e657220697320746865207a65726f206160448201526564647265737360d01b6064820152608401610352565b610e1481610e76565b50565b600032610e256001436110e9565b60405160609290921b6bffffffffffffffffffffffff191660208301524060348201524260548201526074810183905260940160408051601f19818403018152919052805160209091012092915050565b600080546001600160a01b038381166001600160a01b0319831681178455604051919092169283917f8be0079c531659141344cd1fd0a4f28419497f9722a3daafe3b4186f6b6457e09190a35050565b6001546040516370a0823160e01b81523060048201526000916001600160a01b0316906370a082319060240160206040518083038186803b158015610f0a57600080fd5b505afa158015610f1e573d6000803e3d6000fd5b505050506040513d601f19601f82011682018060405250810190610f429190611135565b905080821115610f865760405162461bcd60e51b815260206004820152600f60248201526e62616c616e636520746f6f206c6f7760881b6044820152606401610352565b60015460405163a9059cbb60e01b81526001600160a01b038581166004830152602482018590529091169063a9059cbb90604401602060405180830381600087803b158015610fd457600080fd5b505af1158015610fe8573d6000803e3d6000fd5b505050506040513d601f19601f8201168201806040525081019061100c919061114e565b50505050565b60006020828403121561102457600080fd5b5035919050565b60006020828403121561103d57600080fd5b81356001600160a01b038116811461105457600080fd5b9392505050565b634e487b7160e01b600052602160045260246000fd5b602081016003831061109357634e487b7160e01b600052602160045260246000fd5b91905290565b634e487b7160e01b600052601160045260246000fd5b600082198211156110c2576110c2611099565b500190565b6000826110e457634e487b7160e01b600052601260045260246000fd5b500690565b6000828210156110fb576110fb611099565b500390565b6020808252818101527f4f776e61626c653a2063616c6c6572206973206e6f7420746865206f776e6572604082015260600190565b60006020828403121561114757600080fd5b5051919050565b60006020828403121561116057600080fd5b8151801515811461105457600080fdfea2646970667358221220b32df70dfff86bf7876f419a9d4275d9fdb0f9ef8cd83ffe8cd12899f7e1cb5464736f6c63430008090033",
  "linkReferences": {},
  "deployedLinkReferences": {}
}