{
  "_format": "hh-sol-artifact-1",
  "contractName": "WildAbduction",
  "sourceName": "contracts/staking/WildAbduction.sol",
  "abi": [
    {
      "inputs": [],
      "stateMutability": "nonpayable",
      "type": "constructor"
    },
    {
      "anonymous": false,
      "inputs": [
        {
          "indexed": true,
          "internalType": "uint256",
          "name": "tokenId",
          "type": "uint256"
        }
      ],
      "name": "AlienBurned",
      "type": "event"
    },
    {
      "anonymous": false,
      "inputs": [
        {
          "indexed": true,
          "internalType": "uint256",
          "name": "tokenId",
          "type": "uint256"
        }
      ],
      "name": "AlienMinted",
      "type": "event"
    },
    {
      "anonymous": false,
      "inputs": [
        {
          "indexed": true,
          "internalType": "address",
          "name": "owner",
          "type": "address"
        },
        {
          "indexed": true,
          "internalType": "address",
          "name": "approved",
          "type": "address"
        },
        {
          "indexed": true,
          "internalType": "uint256",
          "name": "tokenId",
          "type": "uint256"
        }
      ],
      "name": "Approval",
      "type": "event"
    },
    {
      "anonymous": false,
      "inputs": [
        {
          "indexed": true,
          "internalType": "address",
          "name": "owner",
          "type": "address"
        },
        {
          "indexed": true,
          "internalType": "address",
          "name": "operator",
          "type": "address"
        },
        {
          "indexed": false,
          "internalType": "bool",
          "name": "approved",
          "type": "bool"
        }
      ],
      "name": "ApprovalForAll",
      "type": "event"
    },
    {
      "anonymous": false,
      "inputs": [
        {
          "indexed": true,
          "internalType": "uint256",
          "name": "tokenId",
          "type": "uint256"
        }
      ],
      "name": "CowboyBurned",
      "type": "event"
    },
    {
      "anonymous": false,
      "inputs": [
        {
          "indexed": true,
          "internalType": "uint256",
          "name": "tokenId",
          "type": "uint256"
        }
      ],
      "name": "CowboyMinted",
      "type": "event"
    },
    {
      "anonymous": false,
      "inputs": [
        {
          "indexed": true,
          "internalType": "uint256",
          "name": "tokenId",
          "type": "uint256"
        }
      ],
      "name": "CowboyStolen",
      "type": "event"
    },
    {
      "anonymous": false,
      "inputs": [
        {
          "indexed": true,
          "internalType": "uint256",
          "name": "tokenId",
          "type": "uint256"
        }
      ],
      "name": "MutantMinted",
      "type": "event"
    },
    {
      "anonymous": false,
      "inputs": [
        {
          "indexed": true,
          "internalType": "address",
          "name": "previousOwner",
          "type": "address"
        },
        {
          "indexed": true,
          "internalType": "address",
          "name": "newOwner",
          "type": "address"
        }
      ],
      "name": "OwnershipTransferred",
      "type": "event"
    },
    {
      "anonymous": false,
      "inputs": [
        {
          "indexed": false,
          "internalType": "address",
          "name": "account",
          "type": "address"
        }
      ],
      "name": "Paused",
      "type": "event"
    },
    {
      "anonymous": false,
      "inputs": [
        {
          "indexed": true,
          "internalType": "address",
          "name": "from",
          "type": "address"
        },
        {
          "indexed": true,
          "internalType": "address",
          "name": "to",
          "type": "address"
        },
        {
          "indexed": true,
          "internalType": "uint256",
          "name": "tokenId",
          "type": "uint256"
        }
      ],
      "name": "Transfer",
      "type": "event"
    },
    {
      "anonymous": false,
      "inputs": [
        {
          "indexed": false,
          "internalType": "address",
          "name": "account",
          "type": "address"
        }
      ],
      "name": "Unpaused",
      "type": "event"
    },
    {
      "inputs": [],
      "name": "MUTANT_COUNT",
      "outputs": [
        {
          "internalType": "uint256",
          "name": "",
          "type": "uint256"
        }
      ],
      "stateMutability": "view",
      "type": "function"
    },
    {
      "inputs": [],
      "name": "PAID_TOKENS",
      "outputs": [
        {
          "internalType": "uint256",
          "name": "",
          "type": "uint256"
        }
      ],
      "stateMutability": "view",
      "type": "function"
    },
    {
      "inputs": [
        {
          "internalType": "address",
          "name": "addr",
          "type": "address"
        }
      ],
      "name": "addAdmin",
      "outputs": [],
      "stateMutability": "nonpayable",
      "type": "function"
    },
    {
      "inputs": [
        {
          "internalType": "address",
          "name": "to",
          "type": "address"
        },
        {
          "internalType": "uint256",
          "name": "tokenId",
          "type": "uint256"
        }
      ],
      "name": "approve",
      "outputs": [],
      "stateMutability": "nonpayable",
      "type": "function"
    },
    {
      "inputs": [
        {
          "internalType": "address",
          "name": "owner",
          "type": "address"
        }
      ],
      "name": "balanceOf",
      "outputs": [
        {
          "internalType": "uint256",
          "name": "",
          "type": "uint256"
        }
      ],
      "stateMutability": "view",
      "type": "function"
    },
    {
      "inputs": [],
      "name": "bank",
      "outputs": [
        {
          "internalType": "contract IBank",
          "name": "",
          "type": "address"
        }
      ],
      "stateMutability": "view",
      "type": "function"
    },
    {
      "inputs": [
        {
          "internalType": "uint256",
          "name": "tokenId",
          "type": "uint256"
        }
      ],
      "name": "burn",
      "outputs": [],
      "stateMutability": "nonpayable",
      "type": "function"
    },
    {
      "inputs": [
        {
          "internalType": "uint256",
          "name": "",
          "type": "uint256"
        }
      ],
      "name": "existingCombinations",
      "outputs": [
        {
          "internalType": "uint256",
          "name": "",
          "type": "uint256"
        }
      ],
      "stateMutability": "view",
      "type": "function"
    },
    {
      "inputs": [
        {
          "internalType": "uint256",
          "name": "tokenId",
          "type": "uint256"
        }
      ],
      "name": "getApproved",
      "outputs": [
        {
          "internalType": "address",
          "name": "",
          "type": "address"
        }
      ],
      "stateMutability": "view",
      "type": "function"
    },
    {
      "inputs": [],
      "name": "getPaidTokens",
      "outputs": [
        {
          "internalType": "uint256",
          "name": "",
          "type": "uint256"
        }
      ],
      "stateMutability": "view",
      "type": "function"
    },
    {
      "inputs": [
        {
          "internalType": "uint256",
          "name": "tokenId",
          "type": "uint256"
        }
      ],
      "name": "getTokenTraits",
      "outputs": [
        {
          "components": [
            {
              "internalType": "bool",
              "name": "isCowboy",
              "type": "bool"
            },
            {
              "internalType": "bool",
              "name": "isMutant",
              "type": "bool"
            },
            {
              "internalType": "uint8",
              "name": "pants",
              "type": "uint8"
            },
            {
              "internalType": "uint8",
              "name": "top",
              "type": "uint8"
            },
            {
              "internalType": "uint8",
              "name": "hat",
              "type": "uint8"
            },
            {
              "internalType": "uint8",
              "name": "weapon",
              "type": "uint8"
            },
            {
              "internalType": "uint8",
              "name": "accessory",
              "type": "uint8"
            },
            {
              "internalType": "uint8",
              "name": "alphaIndex",
              "type": "uint8"
            }
          ],
          "internalType": "struct IWildAbduction.CowboyAlien",
          "name": "",
          "type": "tuple"
        }
      ],
      "stateMutability": "view",
      "type": "function"
    },
    {
      "inputs": [
        {
          "internalType": "address",
          "name": "owner",
          "type": "address"
        },
        {
          "internalType": "address",
          "name": "operator",
          "type": "address"
        }
      ],
      "name": "isApprovedForAll",
      "outputs": [
        {
          "internalType": "bool",
          "name": "",
          "type": "bool"
        }
      ],
      "stateMutability": "view",
      "type": "function"
    },
    {
      "inputs": [],
      "name": "maxTokens",
      "outputs": [
        {
          "internalType": "uint256",
          "name": "",
          "type": "uint256"
        }
      ],
      "stateMutability": "view",
      "type": "function"
    },
    {
      "inputs": [
        {
          "internalType": "address",
          "name": "recipient",
          "type": "address"
        },
        {
          "internalType": "uint256",
          "name": "seed",
          "type": "uint256"
        }
      ],
      "name": "mint",
      "outputs": [],
      "stateMutability": "nonpayable",
      "type": "function"
    },
    {
      "inputs": [],
      "name": "minted",
      "outputs": [
        {
          "internalType": "uint16",
          "name": "",
          "type": "uint16"
        }
      ],
      "stateMutability": "view",
      "type": "function"
    },
    {
      "inputs": [],
      "name": "name",
      "outputs": [
        {
          "internalType": "string",
          "name": "",
          "type": "string"
        }
      ],
      "stateMutability": "view",
      "type": "function"
    },
    {
      "inputs": [],
      "name": "owner",
      "outputs": [
        {
          "internalType": "address",
          "name": "",
          "type": "address"
        }
      ],
      "stateMutability": "view",
      "type": "function"
    },
    {
      "inputs": [
        {
          "internalType": "uint256",
          "name": "tokenId",
          "type": "uint256"
        }
      ],
      "name": "ownerOf",
      "outputs": [
        {
          "internalType": "address",
          "name": "",
          "type": "address"
        }
      ],
      "stateMutability": "view",
      "type": "function"
    },
    {
      "inputs": [],
      "name": "paused",
      "outputs": [
        {
          "internalType": "bool",
          "name": "",
          "type": "bool"
        }
      ],
      "stateMutability": "view",
      "type": "function"
    },
    {
      "inputs": [
        {
          "internalType": "address",
          "name": "addr",
          "type": "address"
        }
      ],
      "name": "removeAdmin",
      "outputs": [],
      "stateMutability": "nonpayable",
      "type": "function"
    },
    {
      "inputs": [],
      "name": "renounceOwnership",
      "outputs": [],
      "stateMutability": "nonpayable",
      "type": "function"
    },
    {
      "inputs": [
        {
          "internalType": "address",
          "name": "from",
          "type": "address"
        },
        {
          "internalType": "address",
          "name": "to",
          "type": "address"
        },
        {
          "internalType": "uint256",
          "name": "tokenId",
          "type": "uint256"
        }
      ],
      "name": "safeTransferFrom",
      "outputs": [],
      "stateMutability": "nonpayable",
      "type": "function"
    },
    {
      "inputs": [
        {
          "internalType": "address",
          "name": "from",
          "type": "address"
        },
        {
          "internalType": "address",
          "name": "to",
          "type": "address"
        },
        {
          "internalType": "uint256",
          "name": "tokenId",
          "type": "uint256"
        },
        {
          "internalType": "bytes",
          "name": "_data",
          "type": "bytes"
        }
      ],
      "name": "safeTransferFrom",
      "outputs": [],
      "stateMutability": "nonpayable",
      "type": "function"
    },
    {
      "inputs": [
        {
          "internalType": "address",
          "name": "operator",
          "type": "address"
        },
        {
          "internalType": "bool",
          "name": "approved",
          "type": "bool"
        }
      ],
      "name": "setApprovalForAll",
      "outputs": [],
      "stateMutability": "nonpayable",
      "type": "function"
    },
    {
      "inputs": [
        {
          "internalType": "address",
          "name": "_bank",
          "type": "address"
        },
        {
          "internalType": "address",
          "name": "_traits",
          "type": "address"
        }
      ],
      "name": "setContracts",
      "outputs": [],
      "stateMutability": "nonpayable",
      "type": "function"
    },
    {
      "inputs": [
        {
          "internalType": "uint256",
          "name": "_paidTokens",
          "type": "uint256"
        }
      ],
      "name": "setPaidTokens",
      "outputs": [],
      "stateMutability": "nonpayable",
      "type": "function"
    },
    {
      "inputs": [
        {
          "internalType": "bool",
          "name": "_paused",
          "type": "bool"
        }
      ],
      "name": "setPaused",
      "outputs": [],
      "stateMutability": "nonpayable",
      "type": "function"
    },
    {
      "inputs": [
        {
          "internalType": "bytes4",
          "name": "interfaceId",
          "type": "bytes4"
        }
      ],
      "name": "supportsInterface",
      "outputs": [
        {
          "internalType": "bool",
          "name": "",
          "type": "bool"
        }
      ],
      "stateMutability": "view",
      "type": "function"
    },
    {
      "inputs": [],
      "name": "symbol",
      "outputs": [
        {
          "internalType": "string",
          "name": "",
          "type": "string"
        }
      ],
      "stateMutability": "view",
      "type": "function"
    },
    {
      "inputs": [
        {
          "internalType": "uint256",
          "name": "index",
          "type": "uint256"
        }
      ],
      "name": "tokenByIndex",
      "outputs": [
        {
          "internalType": "uint256",
          "name": "",
          "type": "uint256"
        }
      ],
      "stateMutability": "view",
      "type": "function"
    },
    {
      "inputs": [
        {
          "internalType": "address",
          "name": "owner",
          "type": "address"
        },
        {
          "internalType": "uint256",
          "name": "index",
          "type": "uint256"
        }
      ],
      "name": "tokenOfOwnerByIndex",
      "outputs": [
        {
          "internalType": "uint256",
          "name": "",
          "type": "uint256"
        }
      ],
      "stateMutability": "view",
      "type": "function"
    },
    {
      "inputs": [
        {
          "internalType": "uint256",
          "name": "",
          "type": "uint256"
        }
      ],
      "name": "tokenTraits",
      "outputs": [
        {
          "internalType": "bool",
          "name": "isCowboy",
          "type": "bool"
        },
        {
          "internalType": "bool",
          "name": "isMutant",
          "type": "bool"
        },
        {
          "internalType": "uint8",
          "name": "pants",
          "type": "uint8"
        },
        {
          "internalType": "uint8",
          "name": "top",
          "type": "uint8"
        },
        {
          "internalType": "uint8",
          "name": "hat",
          "type": "uint8"
        },
        {
          "internalType": "uint8",
          "name": "weapon",
          "type": "uint8"
        },
        {
          "internalType": "uint8",
          "name": "accessory",
          "type": "uint8"
        },
        {
          "internalType": "uint8",
          "name": "alphaIndex",
          "type": "uint8"
        }
      ],
      "stateMutability": "view",
      "type": "function"
    },
    {
      "inputs": [
        {
          "internalType": "uint256",
          "name": "tokenId",
          "type": "uint256"
        }
      ],
      "name": "tokenURI",
      "outputs": [
        {
          "internalType": "string",
          "name": "",
          "type": "string"
        }
      ],
      "stateMutability": "view",
      "type": "function"
    },
    {
      "inputs": [],
      "name": "totalSupply",
      "outputs": [
        {
          "internalType": "uint256",
          "name": "",
          "type": "uint256"
        }
      ],
      "stateMutability": "view",
      "type": "function"
    },
    {
      "inputs": [],
      "name": "traits",
      "outputs": [
        {
          "internalType": "contract ITraits",
          "name": "",
          "type": "address"
        }
      ],
      "stateMutability": "view",
      "type": "function"
    },
    {
      "inputs": [
        {
          "internalType": "address",
          "name": "from",
          "type": "address"
        },
        {
          "internalType": "address",
          "name": "to",
          "type": "address"
        },
        {
          "internalType": "uint256",
          "name": "tokenId",
          "type": "uint256"
        }
      ],
      "name": "transferFrom",
      "outputs": [],
      "stateMutability": "nonpayable",
      "type": "function"
    },
    {
      "inputs": [
        {
          "internalType": "address",
          "name": "newOwner",
          "type": "address"
        }
      ],
      "name": "transferOwnership",
      "outputs": [],
      "stateMutability": "nonpayable",
      "type": "function"
    }
  ],
  "bytecode": "0x60806040523480156200001157600080fd5b5060408051808201825260088152675741472047616d6560c01b6020808301918252835180850190945260058452645747414d4560d81b9084015281519192916200005f91600091620001dd565b50805162000075906001906020840190620001dd565b505050620000926200008c620000d560201b60201c565b620000d9565b600a805460ff60a01b19169055619c40600b55336000908152601360205260409020805460ff1916600117905561115c600d55620000cf6200012b565b620002c0565b3390565b600a80546001600160a01b038381166001600160a01b0319831681179093556040519116919082907f8be0079c531659141344cd1fd0a4f28419497f9722a3daafe3b4186f6b6457e090600090a35050565b6200013f600a54600160a01b900460ff1690565b15620001845760405162461bcd60e51b815260206004820152601060248201526f14185d5cd8589b194e881c185d5cd95960821b604482015260640160405180910390fd5b600a805460ff60a01b1916600160a01b1790557f62e78cea01bee320cd4e420270b5ea74000d11b0c9f74754ebdbfc544b05a258620001c03390565b6040516001600160a01b03909116815260200160405180910390a1565b828054620001eb9062000283565b90600052602060002090601f0160209004810192826200020f57600085556200025a565b82601f106200022a57805160ff19168380011785556200025a565b828001600101855582156200025a579182015b828111156200025a5782518255916020019190600101906200023d565b50620002689291506200026c565b5090565b5b808211156200026857600081556001016200026d565b600181811c908216806200029857607f821691505b60208210811415620002ba57634e487b7160e01b600052602260045260246000fd5b50919050565b61283f80620002d06000396000f3fe608060405234801561001057600080fd5b50600436106102275760003560e01c80637048027511610130578063b88d4fde116100b8578063e1fc334f1161007c578063e1fc334f14610557578063e83157421461056a578063e985e9c514610573578063f244f203146105af578063f2fde38b146105b857600080fd5b8063b88d4fde14610461578063c084f54014610474578063c87b56dd1461047d578063d8952a4914610490578063e05c57bf146104a357600080fd5b80638da5cb5b116100ff5780638da5cb5b146103f557806394e568471461040657806395d89b4114610426578063a1b8f3741461042e578063a22cb4651461044e57600080fd5b806370480275146103b457806370a08231146103c7578063715018a6146103da57806376cdb03b146103e257600080fd5b80633431a753116101b357806342966c681161018257806342966c68146103485780634f02c4201461035b5780634f6ccce71461037c5780635c975abb1461038f5780636352211e146103a157600080fd5b80633431a753146103075780634018b1f81461031a57806340c10f191461032257806342842e0e1461033557600080fd5b806316c38b3c116101fa57806316c38b3c146102a95780631785f53c146102bc57806318160ddd146102cf57806323b872dd146102e15780632f745c59146102f457600080fd5b806301ffc9a71461022c57806306fdde0314610254578063081812fc14610269578063095ea7b314610294575b600080fd5b61023f61023a366004612193565b6105cb565b60405190151581526020015b60405180910390f35b61025c6105f6565b60405161024b9190612208565b61027c61027736600461221b565b610688565b6040516001600160a01b03909116815260200161024b565b6102a76102a236600461224b565b610722565b005b6102a76102b7366004612285565b610838565b6102a76102ca3660046122a0565b61087b565b6008545b60405190815260200161024b565b6102a76102ef3660046122bb565b6108c6565b6102d361030236600461224b565b61090e565b6102a761031536600461221b565b6109a4565b600d546102d3565b6102a761033036600461224b565b6109d7565b6102a76103433660046122bb565b610b6c565b6102a761035636600461221b565b610b87565b600e546103699061ffff1681565b60405161ffff909116815260200161024b565b6102d361038a36600461221b565b610ce8565b600a54600160a01b900460ff1661023f565b61027c6103af36600461221b565b610d7b565b6102a76103c23660046122a0565b610df2565b6102d36103d53660046122a0565b610e40565b6102a7610ec7565b60115461027c906001600160a01b031681565b600a546001600160a01b031661027c565b61041961041436600461221b565b610efd565b60405161024b91906122f7565b61025c610f96565b6102d361043c36600461221b565b60106020526000908152604090205481565b6102a761045c366004612386565b610fa5565b6102a761046f366004612428565b610fb0565b6102d3600d5481565b61025c61048b36600461221b565b610fe8565b6102a761049e3660046124d3565b6110cf565b61050d6104b136600461221b565b600f6020526000908152604090205460ff808216916101008104821691620100008204811691630100000081048216916401000000008204811691650100000000008104821691600160301b8204811691600160381b90041688565b604080519815158952961515602089015260ff9586169688019690965292841660608701529083166080860152821660a0850152811660c08401521660e08201526101000161024b565b60125461027c906001600160a01b031681565b6102d3600b5481565b61023f6105813660046124d3565b6001600160a01b03918216600090815260056020908152604080832093909416825291909152205460ff1690565b6102d3600c5481565b6102a76105c63660046122a0565b611127565b60006001600160e01b0319821663780e9d6360e01b14806105f057506105f0826111bf565b92915050565b606060008054610605906124fd565b80601f0160208091040260200160405190810160405280929190818152602001828054610631906124fd565b801561067e5780601f106106535761010080835404028352916020019161067e565b820191906000526020600020905b81548152906001019060200180831161066157829003601f168201915b5050505050905090565b6000818152600260205260408120546001600160a01b03166107065760405162461bcd60e51b815260206004820152602c60248201527f4552433732313a20617070726f76656420717565727920666f72206e6f6e657860448201526b34b9ba32b73a103a37b5b2b760a11b60648201526084015b60405180910390fd5b506000908152600460205260409020546001600160a01b031690565b600061072d82610d7b565b9050806001600160a01b0316836001600160a01b0316141561079b5760405162461bcd60e51b815260206004820152602160248201527f4552433732313a20617070726f76616c20746f2063757272656e74206f776e656044820152603960f91b60648201526084016106fd565b336001600160a01b03821614806107b757506107b78133610581565b6108295760405162461bcd60e51b815260206004820152603860248201527f4552433732313a20617070726f76652063616c6c6572206973206e6f74206f7760448201527f6e6572206e6f7220617070726f76656420666f7220616c6c000000000000000060648201526084016106fd565b610833838361120f565b505050565b600a546001600160a01b031633146108625760405162461bcd60e51b81526004016106fd90612538565b80156108735761087061127d565b50565b6108706112ff565b600a546001600160a01b031633146108a55760405162461bcd60e51b81526004016106fd90612538565b6001600160a01b03166000908152601360205260409020805460ff19169055565b3360009081526013602052604090205460ff16610903576108e73382611383565b6109035760405162461bcd60e51b81526004016106fd9061256d565b61083383838361147a565b600061091983610e40565b821061097b5760405162461bcd60e51b815260206004820152602b60248201527f455243373231456e756d657261626c653a206f776e657220696e646578206f7560448201526a74206f6620626f756e647360a81b60648201526084016106fd565b506001600160a01b03919091166000908152600660209081526040808320938352929052205490565b600a546001600160a01b031633146109ce5760405162461bcd60e51b81526004016106fd90612538565b61ffff16600d55565b600a54600160a01b900460ff1615610a015760405162461bcd60e51b81526004016106fd906125be565b3360009081526013602052604090205460ff16610a5c5760405162461bcd60e51b81526020600482015260196024820152784f6e6c792061646d696e732063616e2063616c6c207468697360381b60448201526064016106fd565b600b54600e54610a719061ffff1660016125fe565b61ffff161115610ab75760405162461bcd60e51b8152602060048201526011602482015270105b1b081d1bdad95b9cc81b5a5b9d1959607a1b60448201526064016106fd565b600e805461ffff16906000610acb83612624565b82546101009290920a61ffff818102199093169183160217909155600e54610af592501682611621565b50326001600160a01b03831614801590610b1d57506011546001600160a01b03838116911614155b15610b5657600e5460405161ffff909116907f785059930dac5836e4fcb3026def01141f3c6e0a4ff79f5d508c88c7feef137490600090a25b600e54610b6890839061ffff166117bd565b5050565b61083383838360405180602001604052806000815250610fb0565b600a54600160a01b900460ff1615610bb15760405162461bcd60e51b81526004016106fd906125be565b3360009081526013602052604090205460ff16610c0c5760405162461bcd60e51b81526020600482015260196024820152784f6e6c792061646d696e732063616e2063616c6c207468697360381b60448201526064016106fd565b32610c1682610d7b565b6001600160a01b031614610c6c5760405162461bcd60e51b815260206004820152601760248201527f4f6f707320796f7520646f6e2774206f776e207468617400000000000000000060448201526064016106fd565b6000818152600f602052604090205460ff1615610cb35760405181907f69b2dffe356bac0cf339090a558b834deb1801d297db63e6b043bfaee6ea1d7e90600090a2610cdf565b60405181907f53a25ae4217fbc3bc27383ae359a946f20812eb9b2cb7c25142d40c433acb65890600090a25b610870816117d7565b6000610cf360085490565b8210610d565760405162461bcd60e51b815260206004820152602c60248201527f455243373231456e756d657261626c653a20676c6f62616c20696e646578206f60448201526b7574206f6620626f756e647360a01b60648201526084016106fd565b60088281548110610d6957610d69612646565b90600052602060002001549050919050565b6000818152600260205260408120546001600160a01b0316806105f05760405162461bcd60e51b815260206004820152602960248201527f4552433732313a206f776e657220717565727920666f72206e6f6e657869737460448201526832b73a103a37b5b2b760b91b60648201526084016106fd565b600a546001600160a01b03163314610e1c5760405162461bcd60e51b81526004016106fd90612538565b6001600160a01b03166000908152601360205260409020805460ff19166001179055565b60006001600160a01b038216610eab5760405162461bcd60e51b815260206004820152602a60248201527f4552433732313a2062616c616e636520717565727920666f7220746865207a65604482015269726f206164647265737360b01b60648201526084016106fd565b506001600160a01b031660009081526003602052604090205490565b600a546001600160a01b03163314610ef15760405162461bcd60e51b81526004016106fd90612538565b610efb600061187e565b565b610f05612139565b506000908152600f602090815260409182902082516101008082018552915460ff8082161515835292810483161515938201939093526201000083048216938101939093526301000000820481166060840152640100000000820481166080840152650100000000008204811660a0840152600160301b8204811660c0840152600160381b9091041660e082015290565b606060018054610605906124fd565b610b683383836118d0565b610fba3383611383565b610fd65760405162461bcd60e51b81526004016106fd9061256d565b610fe28484848461199f565b50505050565b6000818152600260205260409020546060906001600160a01b031661104f5760405162461bcd60e51b815260206004820152601760248201527f546f6b656e20494420646f6573206e6f7420657869737400000000000000000060448201526064016106fd565b60125460405163c87b56dd60e01b8152600481018490526001600160a01b039091169063c87b56dd9060240160006040518083038186803b15801561109357600080fd5b505afa1580156110a7573d6000803e3d6000fd5b505050506040513d6000823e601f3d908101601f191682016040526105f0919081019061265c565b600a546001600160a01b031633146110f95760405162461bcd60e51b81526004016106fd90612538565b601180546001600160a01b039384166001600160a01b03199182161790915560128054929093169116179055565b600a546001600160a01b031633146111515760405162461bcd60e51b81526004016106fd90612538565b6001600160a01b0381166111b65760405162461bcd60e51b815260206004820152602660248201527f4f776e61626c653a206e6577206f776e657220697320746865207a65726f206160448201526564647265737360d01b60648201526084016106fd565b6108708161187e565b60006001600160e01b031982166380ac58cd60e01b14806111f057506001600160e01b03198216635b5e139f60e01b145b806105f057506301ffc9a760e01b6001600160e01b03198316146105f0565b600081815260046020526040902080546001600160a01b0319166001600160a01b038416908117909155819061124482610d7b565b6001600160a01b03167f8c5be1e5ebec7d5bd14f71427d1e84f3dd0314c0f7b2291e5b200ac8c7c3b92560405160405180910390a45050565b600a54600160a01b900460ff16156112a75760405162461bcd60e51b81526004016106fd906125be565b600a805460ff60a01b1916600160a01b1790557f62e78cea01bee320cd4e420270b5ea74000d11b0c9f74754ebdbfc544b05a2586112e23390565b6040516001600160a01b03909116815260200160405180910390a1565b600a54600160a01b900460ff1661134f5760405162461bcd60e51b815260206004820152601460248201527314185d5cd8589b194e881b9bdd081c185d5cd95960621b60448201526064016106fd565b600a805460ff60a01b191690557f5db9ee0a495bf2e6ff9c91a7834c1ba4fdd244a5e8aa4e537bd38aeae4b073aa336112e2565b6000818152600260205260408120546001600160a01b03166113fc5760405162461bcd60e51b815260206004820152602c60248201527f4552433732313a206f70657261746f7220717565727920666f72206e6f6e657860448201526b34b9ba32b73a103a37b5b2b760a11b60648201526084016106fd565b600061140783610d7b565b9050806001600160a01b0316846001600160a01b031614806114425750836001600160a01b031661143784610688565b6001600160a01b0316145b8061147257506001600160a01b0380821660009081526005602090815260408083209388168352929052205460ff165b949350505050565b826001600160a01b031661148d82610d7b565b6001600160a01b0316146114f15760405162461bcd60e51b815260206004820152602560248201527f4552433732313a207472616e736665722066726f6d20696e636f72726563742060448201526437bbb732b960d91b60648201526084016106fd565b6001600160a01b0382166115535760405162461bcd60e51b8152602060048201526024808201527f4552433732313a207472616e7366657220746f20746865207a65726f206164646044820152637265737360e01b60648201526084016106fd565b61155e8383836119d2565b61156960008261120f565b6001600160a01b03831660009081526003602052604081208054600192906115929084906126d3565b90915550506001600160a01b03821660009081526003602052604081208054600192906115c09084906126ea565b909155505060008181526002602052604080822080546001600160a01b0319166001600160a01b0386811691821790925591518493918716917fddf252ad1be2c89b69c2b068fc378daa952ba7f163c4a11628f55a4df523b3ef91a4505050565b611629612139565b61163282611a8a565b9050806020015180156116475750600c546037145b801561165b5750600d54600e5461ffff1611155b15611679576116728361166d84611ba3565b611621565b90506105f0565b6010600061168683611c03565b815260200190815260200160002054600014156117a9576000838152600f602090815260408083208451815493860151928601516060870151608088015160a089015160c08a015160e08b015161ffff1990991695151561ff00191695909517610100971515979097029690961763ffff000019166201000060ff9485160263ff0000001916176301000000928416929092029190911765ffff0000000019166401000000009183169190910265ff000000000019161765010000000000948216949094029390931767ffff0000000000001916600160301b9184169190910267ff00000000000000191617600160381b9290931691909102919091179055839060109061179384611c03565b81526020810191909152604001600020556105f0565b6117b68361166d84611ba3565b9392505050565b610b68828260405180602001604052806000815250611c92565b60006117e282610d7b565b90506117f0816000846119d2565b6117fb60008361120f565b6001600160a01b03811660009081526003602052604081208054600192906118249084906126d3565b909155505060008281526002602052604080822080546001600160a01b0319169055518391906001600160a01b038416907fddf252ad1be2c89b69c2b068fc378daa952ba7f163c4a11628f55a4df523b3ef908390a45050565b600a80546001600160a01b038381166001600160a01b0319831681179093556040519116919082907f8be0079c531659141344cd1fd0a4f28419497f9722a3daafe3b4186f6b6457e090600090a35050565b816001600160a01b0316836001600160a01b031614156119325760405162461bcd60e51b815260206004820152601960248201527f4552433732313a20617070726f766520746f2063616c6c65720000000000000060448201526064016106fd565b6001600160a01b03838116600081815260056020908152604080832094871680845294825291829020805460ff191686151590811790915591519182527f17307eab39ab6107e8899845ad3d59bd9653f200f220920489ca2b5937696c31910160405180910390a3505050565b6119aa84848461147a565b6119b684848484611cc5565b610fe25760405162461bcd60e51b81526004016106fd90612702565b6001600160a01b038316611a2d57611a2881600880546000838152600960205260408120829055600182018355919091527ff3f7a9fe364faab93b216da50a3214154f22a0a2b415b23a84c8169e8b636ee30155565b611a50565b816001600160a01b0316836001600160a01b031614611a5057611a508382611dd2565b6001600160a01b038216611a675761083381611e6f565b826001600160a01b0316826001600160a01b031614610833576108338282611f1e565b611a92612139565b611aa1600361ffff8416612754565b158015611aba5750611ab8600761ffff8416612754565b155b1580156020830152611acf5760018152611ae3565b611ade600a61ffff8416612754565b151581525b601082901c9150611af98261ffff166000611f62565b60ff16604082015260109190911c90611b1761ffff83166001611f62565b60ff16606082015260109190911c90611b3561ffff83166002611f62565b60ff16608082015260109190911c90611b5361ffff83166003611f62565b60ff1660a082015260109190911c90611b7161ffff83166004611f62565b60ff1660c0820152805160109290921c91611b9e57611b958261ffff166005611f62565b60ff1660e08201525b919050565b600032611bb16001436126d3565b60405160609290921b6bffffffffffffffffffffffff19166020830152406034820152426054820152607481018390526094015b60408051601f19818403018152919052805160209091012092915050565b80516020808301516040808501516060860151608087015160a088015160c089015160e08a0151955198151560f890811b988a0198909852951515871b60218901526001600160f81b031993871b8416602289015291861b83166023880152851b82166024870152841b8116602586015291831b8216602685015290911b166027820152600090602801611be5565b611c9c8383611feb565b611ca96000848484611cc5565b6108335760405162461bcd60e51b81526004016106fd90612702565b60006001600160a01b0384163b15611dc757604051630a85bd0160e11b81526001600160a01b0385169063150b7a0290611d09903390899088908890600401612776565b602060405180830381600087803b158015611d2357600080fd5b505af1925050508015611d53575060408051601f3d908101601f19168201909252611d50918101906127b3565b60015b611dad573d808015611d81576040519150601f19603f3d011682016040523d82523d6000602084013e611d86565b606091505b508051611da55760405162461bcd60e51b81526004016106fd90612702565b805181602001fd5b6001600160e01b031916630a85bd0160e11b149050611472565b506001949350505050565b60006001611ddf84610e40565b611de991906126d3565b600083815260076020526040902054909150808214611e3c576001600160a01b03841660009081526006602090815260408083208584528252808320548484528184208190558352600790915290208190555b5060009182526007602090815260408084208490556001600160a01b039094168352600681528383209183525290812055565b600854600090611e81906001906126d3565b60008381526009602052604081205460088054939450909284908110611ea957611ea9612646565b906000526020600020015490508060088381548110611eca57611eca612646565b6000918252602080832090910192909255828152600990915260408082208490558582528120556008805480611f0257611f026127d0565b6001900381819060005260206000200160009055905550505050565b6000611f2983610e40565b6001600160a01b039093166000908152600660209081526040808320868452825280832085905593825260079052919091209190915550565b6012546040516353584b4960e11b815261ffff8416600482015260ff831660248201526000916001600160a01b03169063a6b096929060440160206040518083038186803b158015611fb357600080fd5b505afa158015611fc7573d6000803e3d6000fd5b505050506040513d601f19601f820116820180604052508101906117b691906127e6565b6001600160a01b0382166120415760405162461bcd60e51b815260206004820181905260248201527f4552433732313a206d696e7420746f20746865207a65726f206164647265737360448201526064016106fd565b6000818152600260205260409020546001600160a01b0316156120a65760405162461bcd60e51b815260206004820152601c60248201527f4552433732313a20746f6b656e20616c7265616479206d696e7465640000000060448201526064016106fd565b6120b2600083836119d2565b6001600160a01b03821660009081526003602052604081208054600192906120db9084906126ea565b909155505060008181526002602052604080822080546001600160a01b0319166001600160a01b03861690811790915590518392907fddf252ad1be2c89b69c2b068fc378daa952ba7f163c4a11628f55a4df523b3ef908290a45050565b6040805161010081018252600080825260208201819052918101829052606081018290526080810182905260a0810182905260c0810182905260e081019190915290565b6001600160e01b03198116811461087057600080fd5b6000602082840312156121a557600080fd5b81356117b68161217d565b60005b838110156121cb5781810151838201526020016121b3565b83811115610fe25750506000910152565b600081518084526121f48160208601602086016121b0565b601f01601f19169290920160200192915050565b6020815260006117b660208301846121dc565b60006020828403121561222d57600080fd5b5035919050565b80356001600160a01b0381168114611b9e57600080fd5b6000806040838503121561225e57600080fd5b61226783612234565b946020939093013593505050565b80358015158114611b9e57600080fd5b60006020828403121561229757600080fd5b6117b682612275565b6000602082840312156122b257600080fd5b6117b682612234565b6000806000606084860312156122d057600080fd5b6122d984612234565b92506122e760208501612234565b9150604084013590509250925092565b60006101008201905082511515825260208301511515602083015260ff604084015116604083015260ff60608401511660608301526080830151612340608084018260ff169052565b5060a083015161235560a084018260ff169052565b5060c083015161236a60c084018260ff169052565b5060e083015161237f60e084018260ff169052565b5092915050565b6000806040838503121561239957600080fd5b6123a283612234565b91506123b060208401612275565b90509250929050565b634e487b7160e01b600052604160045260246000fd5b604051601f8201601f1916810167ffffffffffffffff811182821017156123f8576123f86123b9565b604052919050565b600067ffffffffffffffff82111561241a5761241a6123b9565b50601f01601f191660200190565b6000806000806080858703121561243e57600080fd5b61244785612234565b935061245560208601612234565b925060408501359150606085013567ffffffffffffffff81111561247857600080fd5b8501601f8101871361248957600080fd5b803561249c61249782612400565b6123cf565b8181528860208385010111156124b157600080fd5b8160208401602083013760006020838301015280935050505092959194509250565b600080604083850312156124e657600080fd5b6124ef83612234565b91506123b060208401612234565b600181811c9082168061251157607f821691505b6020821081141561253257634e487b7160e01b600052602260045260246000fd5b50919050565b6020808252818101527f4f776e61626c653a2063616c6c6572206973206e6f7420746865206f776e6572604082015260600190565b60208082526031908201527f4552433732313a207472616e736665722063616c6c6572206973206e6f74206f6040820152701ddb995c881b9bdc88185c1c1c9bdd9959607a1b606082015260800190565b60208082526010908201526f14185d5cd8589b194e881c185d5cd95960821b604082015260600190565b634e487b7160e01b600052601160045260246000fd5b600061ffff80831681851680830382111561261b5761261b6125e8565b01949350505050565b600061ffff8083168181141561263c5761263c6125e8565b6001019392505050565b634e487b7160e01b600052603260045260246000fd5b60006020828403121561266e57600080fd5b815167ffffffffffffffff81111561268557600080fd5b8201601f8101841361269657600080fd5b80516126a461249782612400565b8181528560208385010111156126b957600080fd5b6126ca8260208301602086016121b0565b95945050505050565b6000828210156126e5576126e56125e8565b500390565b600082198211156126fd576126fd6125e8565b500190565b60208082526032908201527f4552433732313a207472616e7366657220746f206e6f6e20455243373231526560408201527131b2b4bb32b91034b6b83632b6b2b73a32b960711b606082015260800190565b60008261277157634e487b7160e01b600052601260045260246000fd5b500690565b6001600160a01b03858116825284166020820152604081018390526080606082018190526000906127a9908301846121dc565b9695505050505050565b6000602082840312156127c557600080fd5b81516117b68161217d565b634e487b7160e01b600052603160045260246000fd5b6000602082840312156127f857600080fd5b815160ff811681146117b657600080fdfea2646970667358221220dc3799d2cf503f761c1265202d33a335ba88d471977b95e9a93c64c463eacc2d64736f6c63430008090033",
  "linkReferences": {},
  "deployedLinkReferences": {}
}