{
  "_format": "hh-sol-artifact-1",
  "contractName": "Randomizer",
  "sourceName": "contracts/staking/Randomizer.sol",
  "abi": [
    {
      "inputs": [],
      "stateMutability": "nonpayable",
      "type": "constructor"
    },
    {
      "inputs": [],
      "name": "randomSource",
      "outputs": [
        {
          "internalType": "contract ISeed",
          "name": "",
          "type": "address"
        }
      ],
      "stateMutability": "view",
      "type": "function"
    },
    {
      "inputs": [
        {
          "internalType": "contract ISeed",
          "name": "_seed",
          "type": "address"
        }
      ],
      "name": "setRandomSource",
      "outputs": [],
      "stateMutability": "nonpayable",
      "type": "function"
    }
  ],
  "bytecode": "0x608060405234801561001057600080fd5b50600180546001600160a01b03191633179055610112806100326000396000f3fe6080604052348015600f57600080fd5b506004361060325760003560e01c80630c89b766146037578063d773826d146065575b600080fd5b6000546049906001600160a01b031681565b6040516001600160a01b03909116815260200160405180910390f35b6074607036600460ae565b6076565b005b6001546001600160a01b03163314608c57600080fd5b600080546001600160a01b0319166001600160a01b0392909216919091179055565b60006020828403121560bf57600080fd5b81356001600160a01b038116811460d557600080fd5b939250505056fea264697066735822122053634f1b4005b91f1187593a580f72bec920c73dfe0aa28be39bf7eb1dd5155264736f6c63430008090033",
  "linkReferences": {},
  "deployedLinkReferences": {}
}