{
  "_format": "hh-sol-artifact-1",
  "contractName": "Bank",
  "sourceName": "contracts/staking/Bank.sol",
  "abi": [
    {
      "inputs": [],
      "stateMutability": "nonpayable",
      "type": "constructor"
    },
    {
      "anonymous": false,
      "inputs": [
        {
          "indexed": true,
          "internalType": "uint256",
          "name": "tokenId",
          "type": "uint256"
        },
        {
          "indexed": true,
          "internalType": "bool",
          "name": "unstaked",
          "type": "bool"
        },
        {
          "indexed": false,
          "internalType": "uint256",
          "name": "earned",
          "type": "uint256"
        }
      ],
      "name": "AlienClaimed",
      "type": "event"
    },
    {
      "anonymous": false,
      "inputs": [
        {
          "indexed": false,
          "internalType": "address",
          "name": "owner",
          "type": "address"
        },
        {
          "indexed": false,
          "internalType": "uint256",
          "name": "tokenId",
          "type": "uint256"
        },
        {
          "indexed": false,
          "internalType": "uint256",
          "name": "value",
          "type": "uint256"
        }
      ],
      "name": "AlienStaked",
      "type": "event"
    },
    {
      "anonymous": false,
      "inputs": [
        {
          "indexed": true,
          "internalType": "uint256",
          "name": "tokenId",
          "type": "uint256"
        },
        {
          "indexed": true,
          "internalType": "bool",
          "name": "unstaked",
          "type": "bool"
        },
        {
          "indexed": false,
          "internalType": "uint256",
          "name": "earned",
          "type": "uint256"
        }
      ],
      "name": "CowboyClaimed",
      "type": "event"
    },
    {
      "anonymous": false,
      "inputs": [
        {
          "indexed": false,
          "internalType": "address",
          "name": "owner",
          "type": "address"
        },
        {
          "indexed": false,
          "internalType": "uint256",
          "name": "tokenId",
          "type": "uint256"
        },
        {
          "indexed": false,
          "internalType": "uint256",
          "name": "value",
          "type": "uint256"
        }
      ],
      "name": "CowboyStaked",
      "type": "event"
    },
    {
      "anonymous": false,
      "inputs": [
        {
          "indexed": true,
          "internalType": "uint256",
          "name": "tokenId",
          "type": "uint256"
        },
        {
          "indexed": true,
          "internalType": "bool",
          "name": "unstaked",
          "type": "bool"
        },
        {
          "indexed": false,
          "internalType": "uint256",
          "name": "earned",
          "type": "uint256"
        }
      ],
      "name": "MutantClaimed",
      "type": "event"
    },
    {
      "anonymous": false,
      "inputs": [
        {
          "indexed": false,
          "internalType": "address",
          "name": "owner",
          "type": "address"
        },
        {
          "indexed": false,
          "internalType": "uint256",
          "name": "tokenId",
          "type": "uint256"
        },
        {
          "indexed": false,
          "internalType": "uint256",
          "name": "value",
          "type": "uint256"
        }
      ],
      "name": "MutantStaked",
      "type": "event"
    },
    {
      "anonymous": false,
      "inputs": [
        {
          "indexed": true,
          "internalType": "address",
          "name": "previousOwner",
          "type": "address"
        },
        {
          "indexed": true,
          "internalType": "address",
          "name": "newOwner",
          "type": "address"
        }
      ],
      "name": "OwnershipTransferred",
      "type": "event"
    },
    {
      "anonymous": false,
      "inputs": [
        {
          "indexed": false,
          "internalType": "address",
          "name": "account",
          "type": "address"
        }
      ],
      "name": "Paused",
      "type": "event"
    },
    {
      "anonymous": false,
      "inputs": [
        {
          "indexed": false,
          "internalType": "address",
          "name": "account",
          "type": "address"
        }
      ],
      "name": "Unpaused",
      "type": "event"
    },
    {
      "inputs": [],
      "name": "DAILY_LAND_RATE",
      "outputs": [
        {
          "internalType": "uint256",
          "name": "",
          "type": "uint256"
        }
      ],
      "stateMutability": "view",
      "type": "function"
    },
    {
      "inputs": [],
      "name": "LANDPerAlpha",
      "outputs": [
        {
          "internalType": "uint256",
          "name": "",
          "type": "uint256"
        }
      ],
      "stateMutability": "view",
      "type": "function"
    },
    {
      "inputs": [],
      "name": "LAND_CLAIM_TAX_PERCENTAGE",
      "outputs": [
        {
          "internalType": "uint256",
          "name": "",
          "type": "uint256"
        }
      ],
      "stateMutability": "view",
      "type": "function"
    },
    {
      "inputs": [],
      "name": "MASTER_TAX",
      "outputs": [
        {
          "internalType": "uint256",
          "name": "",
          "type": "uint256"
        }
      ],
      "stateMutability": "view",
      "type": "function"
    },
    {
      "inputs": [],
      "name": "MAXIMUM_GLOBAL_LAND",
      "outputs": [
        {
          "internalType": "uint256",
          "name": "",
          "type": "uint256"
        }
      ],
      "stateMutability": "view",
      "type": "function"
    },
    {
      "inputs": [],
      "name": "MAX_ALPHA",
      "outputs": [
        {
          "internalType": "uint8",
          "name": "",
          "type": "uint8"
        }
      ],
      "stateMutability": "view",
      "type": "function"
    },
    {
      "inputs": [],
      "name": "MINIMUM_TO_EXIT",
      "outputs": [
        {
          "internalType": "uint256",
          "name": "",
          "type": "uint256"
        }
      ],
      "stateMutability": "view",
      "type": "function"
    },
    {
      "inputs": [],
      "name": "MUTANT_DAILY_LAND_RATE",
      "outputs": [
        {
          "internalType": "uint256",
          "name": "",
          "type": "uint256"
        }
      ],
      "stateMutability": "view",
      "type": "function"
    },
    {
      "inputs": [
        {
          "internalType": "address",
          "name": "account",
          "type": "address"
        },
        {
          "internalType": "uint16[]",
          "name": "tokenIds",
          "type": "uint16[]"
        }
      ],
      "name": "addManyToBankAndPack",
      "outputs": [],
      "stateMutability": "nonpayable",
      "type": "function"
    },
    {
      "inputs": [
        {
          "internalType": "uint256",
          "name": "",
          "type": "uint256"
        }
      ],
      "name": "bank",
      "outputs": [
        {
          "internalType": "uint16",
          "name": "tokenId",
          "type": "uint16"
        },
        {
          "internalType": "uint80",
          "name": "value",
          "type": "uint80"
        },
        {
          "internalType": "address",
          "name": "owner",
          "type": "address"
        }
      ],
      "stateMutability": "view",
      "type": "function"
    },
    {
      "inputs": [
        {
          "internalType": "uint16[]",
          "name": "tokenIds",
          "type": "uint16[]"
        },
        {
          "internalType": "bool",
          "name": "unstake",
          "type": "bool"
        }
      ],
      "name": "claimManyFromBankAndPack",
      "outputs": [],
      "stateMutability": "nonpayable",
      "type": "function"
    },
    {
      "inputs": [],
      "name": "game",
      "outputs": [
        {
          "internalType": "contract WildAbduction",
          "name": "",
          "type": "address"
        }
      ],
      "stateMutability": "view",
      "type": "function"
    },
    {
      "inputs": [
        {
          "internalType": "uint256",
          "name": "tokenId",
          "type": "uint256"
        }
      ],
      "name": "isCowboy",
      "outputs": [
        {
          "internalType": "bool",
          "name": "Cowboy",
          "type": "bool"
        }
      ],
      "stateMutability": "view",
      "type": "function"
    },
    {
      "inputs": [
        {
          "internalType": "uint256",
          "name": "tokenId",
          "type": "uint256"
        }
      ],
      "name": "isMutant",
      "outputs": [
        {
          "internalType": "bool",
          "name": "Mutant",
          "type": "bool"
        }
      ],
      "stateMutability": "view",
      "type": "function"
    },
    {
      "inputs": [],
      "name": "land",
      "outputs": [
        {
          "internalType": "contract ILAND",
          "name": "",
          "type": "address"
        }
      ],
      "stateMutability": "view",
      "type": "function"
    },
    {
      "inputs": [],
      "name": "lastClaimTimestamp",
      "outputs": [
        {
          "internalType": "uint256",
          "name": "",
          "type": "uint256"
        }
      ],
      "stateMutability": "view",
      "type": "function"
    },
    {
      "inputs": [
        {
          "internalType": "address",
          "name": "",
          "type": "address"
        },
        {
          "internalType": "address",
          "name": "from",
          "type": "address"
        },
        {
          "internalType": "uint256",
          "name": "",
          "type": "uint256"
        },
        {
          "internalType": "bytes",
          "name": "",
          "type": "bytes"
        }
      ],
      "name": "onERC721Received",
      "outputs": [
        {
          "internalType": "bytes4",
          "name": "",
          "type": "bytes4"
        }
      ],
      "stateMutability": "pure",
      "type": "function"
    },
    {
      "inputs": [],
      "name": "owner",
      "outputs": [
        {
          "internalType": "address",
          "name": "",
          "type": "address"
        }
      ],
      "stateMutability": "view",
      "type": "function"
    },
    {
      "inputs": [
        {
          "internalType": "uint256",
          "name": "",
          "type": "uint256"
        },
        {
          "internalType": "uint256",
          "name": "",
          "type": "uint256"
        }
      ],
      "name": "pack",
      "outputs": [
        {
          "internalType": "uint16",
          "name": "tokenId",
          "type": "uint16"
        },
        {
          "internalType": "uint80",
          "name": "value",
          "type": "uint80"
        },
        {
          "internalType": "address",
          "name": "owner",
          "type": "address"
        }
      ],
      "stateMutability": "view",
      "type": "function"
    },
    {
      "inputs": [
        {
          "internalType": "uint256",
          "name": "",
          "type": "uint256"
        }
      ],
      "name": "packIndices",
      "outputs": [
        {
          "internalType": "uint256",
          "name": "",
          "type": "uint256"
        }
      ],
      "stateMutability": "view",
      "type": "function"
    },
    {
      "inputs": [],
      "name": "paused",
      "outputs": [
        {
          "internalType": "bool",
          "name": "",
          "type": "bool"
        }
      ],
      "stateMutability": "view",
      "type": "function"
    },
    {
      "inputs": [
        {
          "internalType": "uint256",
          "name": "seed",
          "type": "uint256"
        }
      ],
      "name": "randomAlienOwner",
      "outputs": [
        {
          "internalType": "address",
          "name": "",
          "type": "address"
        }
      ],
      "stateMutability": "view",
      "type": "function"
    },
    {
      "inputs": [
        {
          "internalType": "uint256",
          "name": "tax",
          "type": "uint256"
        }
      ],
      "name": "reduceMasterTax",
      "outputs": [],
      "stateMutability": "nonpayable",
      "type": "function"
    },
    {
      "inputs": [],
      "name": "renounceOwnership",
      "outputs": [],
      "stateMutability": "nonpayable",
      "type": "function"
    },
    {
      "inputs": [],
      "name": "rescueEnabled",
      "outputs": [
        {
          "internalType": "bool",
          "name": "",
          "type": "bool"
        }
      ],
      "stateMutability": "view",
      "type": "function"
    },
    {
      "inputs": [
        {
          "internalType": "address",
          "name": "_game",
          "type": "address"
        },
        {
          "internalType": "address",
          "name": "_land",
          "type": "address"
        },
        {
          "internalType": "address",
          "name": "_wag",
          "type": "address"
        }
      ],
      "name": "setContracts",
      "outputs": [],
      "stateMutability": "nonpayable",
      "type": "function"
    },
    {
      "inputs": [
        {
          "internalType": "bool",
          "name": "_paused",
          "type": "bool"
        }
      ],
      "name": "setPaused",
      "outputs": [],
      "stateMutability": "nonpayable",
      "type": "function"
    },
    {
      "inputs": [
        {
          "internalType": "bool",
          "name": "_enabled",
          "type": "bool"
        }
      ],
      "name": "setRescueEnabled",
      "outputs": [],
      "stateMutability": "nonpayable",
      "type": "function"
    },
    {
      "inputs": [
        {
          "internalType": "uint256",
          "name": "rate",
          "type": "uint256"
        },
        {
          "internalType": "uint256",
          "name": "mutant_rate",
          "type": "uint256"
        },
        {
          "internalType": "uint256",
          "name": "exit",
          "type": "uint256"
        }
      ],
      "name": "setSettings",
      "outputs": [],
      "stateMutability": "nonpayable",
      "type": "function"
    },
    {
      "inputs": [],
      "name": "totalAlphaStaked",
      "outputs": [
        {
          "internalType": "uint256",
          "name": "",
          "type": "uint256"
        }
      ],
      "stateMutability": "view",
      "type": "function"
    },
    {
      "inputs": [],
      "name": "totalCowboyStaked",
      "outputs": [
        {
          "internalType": "uint256",
          "name": "",
          "type": "uint256"
        }
      ],
      "stateMutability": "view",
      "type": "function"
    },
    {
      "inputs": [],
      "name": "totalLANDEarned",
      "outputs": [
        {
          "internalType": "uint256",
          "name": "",
          "type": "uint256"
        }
      ],
      "stateMutability": "view",
      "type": "function"
    },
    {
      "inputs": [],
      "name": "totalMutantStaked",
      "outputs": [
        {
          "internalType": "uint256",
          "name": "",
          "type": "uint256"
        }
      ],
      "stateMutability": "view",
      "type": "function"
    },
    {
      "inputs": [
        {
          "internalType": "address",
          "name": "newOwner",
          "type": "address"
        }
      ],
      "name": "transferOwnership",
      "outputs": [],
      "stateMutability": "nonpayable",
      "type": "function"
    },
    {
      "inputs": [],
      "name": "unaccountedRewards",
      "outputs": [
        {
          "internalType": "uint256",
          "name": "",
          "type": "uint256"
        }
      ],
      "stateMutability": "view",
      "type": "function"
    },
    {
      "inputs": [],
      "name": "wag",
      "outputs": [
        {
          "internalType": "contract WAGGame",
          "name": "",
          "type": "address"
        }
      ],
      "stateMutability": "view",
      "type": "function"
    }
  ],
  "bytecode": "0x60806040526000600781905560088190556009556901e7e4171bf4d3a00000600a556905b7ac4553de7ae00000600b556202a300600c55601e600d556012805461ffff1916905534801561005257600080fd5b5061005c3361006e565b6000805460ff60a01b191690556100be565b600080546001600160a01b038381166001600160a01b0319831681178455604051919092169283917f8be0079c531659141344cd1fd0a4f28419497f9722a3daafe3b4186f6b6457e09190a35050565b6125cc806100cd6000396000f3fe608060405234801561001057600080fd5b506004361061021c5760003560e01c80637653100811610125578063c0c472c0116100ad578063ed152ffb1161007c578063ed152ffb146104c3578063ed57ad24146104cc578063f2fde38b146104df578063f5dbced2146104f2578063fadb12f51461050557600080fd5b8063c0c472c014610481578063c3fe3e281461048a578063dd55fcb31461049d578063e0e1ee60146104b057600080fd5b80638da5cb5b116100f45780638da5cb5b1461042e578063a0949e771461043f578063a9b3c5db14610448578063b3066d491461045b578063b40b03d21461046e57600080fd5b80637653100814610366578063771f2476146103795780637d6091ff146103f05780638c9801291461040357600080fd5b806342ed87f7116101a85780635c975abb116101775780635c975abb1461031a578063607af3971461032c5780636f234fb5146103355780636f25787514610355578063715018a61461035e57600080fd5b806342ed87f7146102e2578063438b2aed146102eb5780634d61231f146102fe5780635b5191421461030757600080fd5b80631d57b876116101ef5780631d57b876146102a0578063201ef2a4146102a957806337a386b9146102c357806339db714f146102cc57806342406242146102d957600080fd5b8063143baa2714610221578063150b7a021461023c57806316c38b3c146102685780631bfd318a1461027d575b600080fd5b610229601481565b6040519081526020015b60405180910390f35b61024f61024a3660046120b2565b61050e565b6040516001600160e01b03199091168152602001610233565b61027b61027636600461215f565b61058a565b005b61029061028b36600461217c565b6105cd565b6040519015158152602001610233565b610229600a5481565b6102b1600881565b60405160ff9091168152602001610233565b610229600c5481565b6012546102909060ff1681565b61022960095481565b610229600e5481565b61027b6102f9366004612195565b610659565b610229600f5481565b61027b61031536600461220d565b610691565b600054600160a01b900460ff16610290565b61022960115481565b61022961034336600461217c565b60066020526000908152604090205481565b61022960075481565b61027b610ae7565b61027b61037436600461215f565b610b1d565b6103bf61038736600461217c565b60046020526000908152604090205461ffff8116906201000081046001600160501b031690600160601b90046001600160a01b031683565b6040805161ffff90941684526001600160501b0390921660208401526001600160a01b031690820152606001610233565b61027b6103fe36600461217c565b610b5a565b600354610416906001600160a01b031681565b6040516001600160a01b039091168152602001610233565b6000546001600160a01b0316610416565b610229600d5481565b6102296b07c13bc4b2c133c56000000081565b61027b610469366004612262565b610b89565b61027b61047c3660046122ad565b610bf2565b61022960085481565b600154610416906001600160a01b031681565b6103bf6104ab3660046122f9565b610f4e565b6102906104be36600461217c565b610fa1565b61022960105481565b6104166104da36600461217c565b61102d565b61027b6104ed36600461231b565b61111c565b600254610416906001600160a01b031681565b610229600b5481565b60006001600160a01b038516156105785760405162461bcd60e51b815260206004820152602360248201527f43616e6e6f742073656e6420746f6b656e7320746f204261726e206469726563604482015262746c7960e81b60648201526084015b60405180910390fd5b50630a85bd0160e11b95945050505050565b6000546001600160a01b031633146105b45760405162461bcd60e51b815260040161056f90612338565b80156105c5576105c26111b4565b50565b6105c2611236565b60015460405163e05c57bf60e01b8152600481018390526000916001600160a01b03169063e05c57bf906024016101006040518083038186803b15801561061357600080fd5b505afa158015610627573d6000803e3d6000fd5b505050506040513d601f19601f8201168201806040525081019061064b9190612383565b509598975050505050505050565b6000546001600160a01b031633146106835760405162461bcd60e51b815260040161056f90612338565b600c55600a91909155600b55565b601254610100900460ff16156106d95760405162461bcd60e51b815260206004820152600d60248201526c4e6f207265656e7472616e637960981b604482015260640161056f565b6012805461ff001916610100179055326106f03390565b6001600160a01b0316148061071857506002546001600160a01b0316336001600160a01b0316145b6107645760405162461bcd60e51b815260206004820152601a60248201527f444f4e54204749564520594f555220544f4b454e532041574159000000000000604482015260640161056f565b6001600160a01b03831632146107bc5760405162461bcd60e51b815260206004820152601960248201527f6163636f756e7420746f20746f6b656e206d69736d6174636800000000000000604482015260640161056f565b60005b81811015610ad6578282828181106107d9576107d961241f565b90506020020160208101906107ee9190612435565b61ffff166107fb57610ac4565b6002546001600160a01b0316336001600160a01b0316146109af5760015433906001600160a01b0316636352211e85858581811061083b5761083b61241f565b90506020020160208101906108509190612435565b6040516001600160e01b031960e084901b16815261ffff909116600482015260240160206040518083038186803b15801561088a57600080fd5b505afa15801561089e573d6000803e3d6000fd5b505050506040513d601f19601f820116820180604052508101906108c29190612459565b6001600160a01b0316146109095760405162461bcd60e51b815260206004820152600e60248201526d2727aa102ca7aaa9102a27a5a2a760911b604482015260640161056f565b6001546001600160a01b03166323b872dd333086868681811061092e5761092e61241f565b90506020020160208101906109439190612435565b6040516001600160e01b031960e086901b1681526001600160a01b03938416600482015292909116602483015261ffff166044820152606401600060405180830381600087803b15801561099657600080fd5b505af11580156109aa573d6000803e3d6000fd5b505050505b6109e28383838181106109c4576109c461241f565b90506020020160208101906109d99190612435565b61ffff16610fa1565b15610a2257610a1d848484848181106109fd576109fd61241f565b9050602002016020810190610a129190612435565b61ffff1660016112ba565b610ac4565b610a55838383818110610a3757610a3761241f565b9050602002016020810190610a4c9190612435565b61ffff166105cd565b15610a9057610a1d84848484818110610a7057610a7061241f565b9050602002016020810190610a859190612435565b61ffff1660006112ba565b610ac484848484818110610aa657610aa661241f565b9050602002016020810190610abb9190612435565b61ffff166114ef565b80610ace8161248c565b9150506107bf565b50506012805461ff00191690555050565b6000546001600160a01b03163314610b115760405162461bcd60e51b815260040161056f90612338565b610b1b60006115fd565b565b6000546001600160a01b03163314610b475760405162461bcd60e51b815260040161056f90612338565b6012805460ff1916911515919091179055565b6000546001600160a01b03163314610b845760405162461bcd60e51b815260040161056f90612338565b600d55565b6000546001600160a01b03163314610bb35760405162461bcd60e51b815260040161056f90612338565b600180546001600160a01b039485166001600160a01b031991821617909155600380549385169382169390931790925560028054919093169116179055565b601254610100900460ff1615610c3a5760405162461bcd60e51b815260206004820152600d60248201526c4e6f207265656e7472616e637960981b604482015260640161056f565b6012805461ff001916610100179055610c5d60005460ff600160a01b9091041690565b15610c7a5760405162461bcd60e51b815260040161056f906124a7565b6b07c13bc4b2c133c560000000600e541015610d2f5762015180600a54600f5460115442610ca891906124d1565b610cb291906124e8565b610cbc91906124e8565b610cc6919061251d565b600e6000828254610cd79190612531565b9250508190555062015180600b5460105460115442610cf691906124d1565b610d0091906124e8565b610d0a91906124e8565b610d14919061251d565b600e6000828254610d259190612531565b9091555050426011555b33321480610d5057506002546001600160a01b0316336001600160a01b0316145b610d875760405162461bcd60e51b81526020600482015260086024820152674f6e6c7920454f4160c01b604482015260640161056f565b6000805b83811015610e9757610da88585838181106109c4576109c461241f565b15610df457610de3858583818110610dc257610dc261241f565b9050602002016020810190610dd79190612435565b61ffff1684600061164d565b610ded9083612531565b9150610e85565b610e09858583818110610a3757610a3761241f565b15610e4457610de3858583818110610e2357610e2361241f565b9050602002016020810190610e389190612435565b61ffff1684600161164d565b610e78858583818110610e5957610e5961241f565b9050602002016020810190610e6e9190612435565b61ffff1684611a75565b610e829083612531565b91505b80610e8f8161248c565b915050610d8b565b506064600d546064610ea991906124d1565b610eb3919061251d565b610ebd90826124e8565b905080610eca5750610f3e565b6003546001600160a01b03166340c10f19336040516001600160e01b031960e084901b1681526001600160a01b03909116600482015260248101849052604401600060405180830381600087803b158015610f2457600080fd5b505af1158015610f38573d6000803e3d6000fd5b50505050505b50506012805461ff001916905550565b60056020528160005260406000208181548110610f6a57600080fd5b60009182526020909120015461ffff811692506201000081046001600160501b03169150600160601b90046001600160a01b031683565b60015460405163e05c57bf60e01b8152600481018390526000916001600160a01b03169063e05c57bf906024016101006040518083038186803b158015610fe757600080fd5b505afa158015610ffb573d6000803e3d6000fd5b505050506040513d601f19601f8201168201806040525081019061101f9190612383565b509498975050505050505050565b60006007546000141561104257506000919050565b60006007548363ffffffff166110589190612549565b60209390931c9290506000806110706003600861255d565b60ff1690505b60088111611111576000818152600560205260409020546110989082906124e8565b6110a29083612531565b91508183106110b0576110ff565b600081815260056020526040902080546110ca9087612549565b815481106110da576110da61241f565b600091825260209091200154600160601b90046001600160a01b031695945050505050565b806111098161248c565b915050611076565b506000949350505050565b6000546001600160a01b031633146111465760405162461bcd60e51b815260040161056f90612338565b6001600160a01b0381166111ab5760405162461bcd60e51b815260206004820152602660248201527f4f776e61626c653a206e6577206f776e657220697320746865207a65726f206160448201526564647265737360d01b606482015260840161056f565b6105c2816115fd565b600054600160a01b900460ff16156111de5760405162461bcd60e51b815260040161056f906124a7565b6000805460ff60a01b1916600160a01b1790557f62e78cea01bee320cd4e420270b5ea74000d11b0c9f74754ebdbfc544b05a2586112193390565b6040516001600160a01b03909116815260200160405180910390a1565b600054600160a01b900460ff166112865760405162461bcd60e51b815260206004820152601460248201527314185d5cd8589b194e881b9bdd081c185d5cd95960621b604482015260640161056f565b6000805460ff60a01b191690557f5db9ee0a495bf2e6ff9c91a7834c1ba4fdd244a5e8aa4e537bd38aeae4b073aa33611219565b600054600160a01b900460ff16156112e45760405162461bcd60e51b815260040161056f906124a7565b6b07c13bc4b2c133c560000000600e5410156113995762015180600a54600f546011544261131291906124d1565b61131c91906124e8565b61132691906124e8565b611330919061251d565b600e60008282546113419190612531565b9250508190555062015180600b546010546011544261136091906124d1565b61136a91906124e8565b61137491906124e8565b61137e919061251d565b600e600082825461138f9190612531565b9091555050426011555b6040805160608101825261ffff8481168252426001600160501b0390811660208085019182526001600160a01b0389811686880190815260008a8152600490935296909120945185549251965194166001600160601b031990921691909117620100009590921694909402176001600160601b0316600160601b9190931602919091179055801561148e576001601060008282546114379190612531565b9091555050604080516001600160a01b03851681526020810184905242918101919091527f67377b901c3a1ac89553c429f65cac79dac04925d9144225d558089429da7273906060015b60405180910390a1505050565b6001600f60008282546114a19190612531565b9091555050604080516001600160a01b03851681526020810184905242918101919091527f54f5c5fed429b65250fa351742c94766020246cfd619033921fe50f199c21c0f90606001611481565b60006114fa82611f4b565b60ff16905080600760008282546115119190612531565b9091555050600081815260056020818152604080842080548786526006845282862081905593835281516060808201845261ffff808a168352600980546001600160501b039081168589019081526001600160a01b038e8116878a0181815260018d018a55988d529b8a9020965196909a01805491519751969094166001600160601b031990911617620100009690911695909502949094176001600160601b0316600160601b93909716929092029590951790555481519485529184018690528301527f8f5e58db9f977e8daa54d774eef783ed385f369b3e6e8b662f8fd97d36b72bf99101611481565b600080546001600160a01b038381166001600160a01b0319831681178455604051919092169283917f8be0079c531659141344cd1fd0a4f28419497f9722a3daafe3b4186f6b6457e09190a35050565b60008381526004602090815260408083208151606081018352905461ffff811682526201000081046001600160501b031693820193909352600160601b9092046001600160a01b031690820181905233146116df5760405162461bcd60e51b81526020600482015260126024820152715357495045522c204e4f2053574950494e4760701b604482015260640161056f565b8380156117045750600c546020820151611702906001600160501b0316426124d1565b105b1561175d5760405162461bcd60e51b8152602060048201526024808201527f474f4e4e4120424520434f4c4420574954484f55542054574f204441592753206044820152631310539160e21b606482015260840161056f565b600a548361176a5750600b545b6b07c13bc4b2c133c560000000600e5410156117b957620151808183602001516001600160501b03164261179e91906124d1565b6117a891906124e8565b6117b2919061251d565b9250611810565b60115482602001516001600160501b031611156117d95760009250611810565b620151808183602001516001600160501b03166011546117f991906124d1565b61180391906124e8565b61180d919061251d565b92505b841561190257831561185b5761182542611fea565b600116600114156118565761183983612044565b600092506001600f600082825461185091906124d1565b90915550505b611874565b60016010600082825461186e91906124d1565b90915550505b6001546001600160a01b03166323b872dd30336040516001600160e01b031960e085901b1681526001600160a01b0392831660048201529116602482015260448101899052606401600060405180830381600087803b1580156118d657600080fd5b505af11580156118ea573d6000803e3d6000fd5b505050600087815260046020526040812055506119e6565b831561194b5761192760646119186014866124e8565b611922919061251d565b612044565b60646119346014826124d1565b61193e90856124e8565b611948919061251d565b92505b60405180606001604052808761ffff168152602001426001600160501b031681526020016119763390565b6001600160a01b0390811690915260008881526004602090815260409182902084518154928601519590930151909316600160601b026001600160601b036001600160501b0390951662010000026001600160601b031990921661ffff9093169290921717929092169190911790555b8315611a2e57841515867fb0bd1f59c8cc247d568b0ee61df1da9d786cb2d200eee608cc9f5a7669ee6f9a85604051611a2191815260200190565b60405180910390a3611a6c565b841515867f47eccccbdf183b08b581d3c64c0f95256cdfa75c96be96e68250befe4485da7285604051611a6391815260200190565b60405180910390a35b50509392505050565b6001546040516331a9108f60e11b81526004810184905260009130916001600160a01b0390911690636352211e9060240160206040518083038186803b158015611abe57600080fd5b505afa158015611ad2573d6000803e3d6000fd5b505050506040513d601f19601f82011682018060405250810190611af69190612459565b6001600160a01b031614611b4c5760405162461bcd60e51b815260206004820152601760248201527f41494e5420412050415254204f4620544845205041434b000000000000000000604482015260640161056f565b6000611b5784611f4b565b60ff1660008181526005602090815260408083208884526006909252822054815493945091929091908110611b8e57611b8e61241f565b600091825260209182902060408051606081018252929091015461ffff811683526201000081046001600160501b031693830193909352600160601b9092046001600160a01b031691810182905291503314611c215760405162461bcd60e51b81526020600482015260126024820152715357495045522c204e4f2053574950494e4760701b604482015260640161056f565b80602001516001600160501b0316600954611c3c91906124d1565b611c4690836124e8565b92508315611e3a578160076000828254611c6091906124d1565b90915550506001546001600160a01b03166323b872dd30336040516001600160e01b031960e085901b1681526001600160a01b0392831660048201529116602482015260448101889052606401600060405180830381600087803b158015611cc757600080fd5b505af1158015611cdb573d6000803e3d6000fd5b5050506000838152600560205260408120805491925090611cfe906001906124d1565b81548110611d0e57611d0e61241f565b6000918252602080832060408051606081018252939091015461ffff811684526201000081046001600160501b031684840152600160601b90046001600160a01b031683820152868452600582528084208a855260069092529092205482549193508392918110611d8157611d8161241f565b60009182526020808320845192018054858301516040968701516001600160a01b0316600160601b026001600160601b036001600160501b0390921662010000026001600160601b031990931661ffff968716179290921716179055898352600681528383205485519092168352838320919091558582526005905220805480611e0d57611e0d612580565b60008281526020808220830160001990810183905590920190925587825260069052604081205550611f06565b60405180606001604052808661ffff1681526020016009546001600160501b03168152602001611e673390565b6001600160a01b03169052600083815260056020908152604080832089845260069092529091205481548110611e9f57611e9f61241f565b6000918252602091829020835191018054928401516040909401516001600160a01b0316600160601b026001600160601b036001600160501b0390951662010000026001600160601b031990941661ffff9093169290921792909217929092169190911790555b831515857f261f0854432bace3f0023f1dd8d91177b3bc455fb50acd7491782cd858b24c7285604051611f3b91815260200190565b60405180910390a3505092915050565b60015460405163e05c57bf60e01b81526004810183905260009182916001600160a01b039091169063e05c57bf906024016101006040518083038186803b158015611f9557600080fd5b505afa158015611fa9573d6000803e3d6000fd5b505050506040513d601f19601f82011682018060405250810190611fcd9190612383565b975050505050505050806008611fe3919061255d565b9392505050565b600032611ff86001436124d1565b60405160609290921b6001600160601b03191660208301524060348201524260548201526074810183905260940160408051601f19818403018152919052805160209091012092915050565b60075461206557806008600082825461205d9190612531565b909155505050565b6007546008546120759083612531565b61207f919061251d565b600960008282546120909190612531565b9091555050600060085550565b6001600160a01b03811681146105c257600080fd5b6000806000806000608086880312156120ca57600080fd5b85356120d58161209d565b945060208601356120e58161209d565b935060408601359250606086013567ffffffffffffffff8082111561210957600080fd5b818801915088601f83011261211d57600080fd5b81358181111561212c57600080fd5b89602082850101111561213e57600080fd5b9699959850939650602001949392505050565b80151581146105c257600080fd5b60006020828403121561217157600080fd5b8135611fe381612151565b60006020828403121561218e57600080fd5b5035919050565b6000806000606084860312156121aa57600080fd5b505081359360208301359350604090920135919050565b60008083601f8401126121d357600080fd5b50813567ffffffffffffffff8111156121eb57600080fd5b6020830191508360208260051b850101111561220657600080fd5b9250929050565b60008060006040848603121561222257600080fd5b833561222d8161209d565b9250602084013567ffffffffffffffff81111561224957600080fd5b612255868287016121c1565b9497909650939450505050565b60008060006060848603121561227757600080fd5b83356122828161209d565b925060208401356122928161209d565b915060408401356122a28161209d565b809150509250925092565b6000806000604084860312156122c257600080fd5b833567ffffffffffffffff8111156122d957600080fd5b6122e5868287016121c1565b90945092505060208401356122a281612151565b6000806040838503121561230c57600080fd5b50508035926020909101359150565b60006020828403121561232d57600080fd5b8135611fe38161209d565b6020808252818101527f4f776e61626c653a2063616c6c6572206973206e6f7420746865206f776e6572604082015260600190565b805160ff8116811461237e57600080fd5b919050565b600080600080600080600080610100898b0312156123a057600080fd5b88516123ab81612151565b60208a01519098506123bc81612151565b96506123ca60408a0161236d565b95506123d860608a0161236d565b94506123e660808a0161236d565b93506123f460a08a0161236d565b925061240260c08a0161236d565b915061241060e08a0161236d565b90509295985092959890939650565b634e487b7160e01b600052603260045260246000fd5b60006020828403121561244757600080fd5b813561ffff81168114611fe357600080fd5b60006020828403121561246b57600080fd5b8151611fe38161209d565b634e487b7160e01b600052601160045260246000fd5b60006000198214156124a0576124a0612476565b5060010190565b60208082526010908201526f14185d5cd8589b194e881c185d5cd95960821b604082015260600190565b6000828210156124e3576124e3612476565b500390565b600081600019048311821515161561250257612502612476565b500290565b634e487b7160e01b600052601260045260246000fd5b60008261252c5761252c612507565b500490565b6000821982111561254457612544612476565b500190565b60008261255857612558612507565b500690565b600060ff821660ff84168082101561257757612577612476565b90039392505050565b634e487b7160e01b600052603160045260246000fdfea26469706673582212204151a7342dee659ceda94a19a86090f9be8dd9eb741467400b75e11b01b7066c64736f6c63430008090033",
  "linkReferences": {},
  "deployedLinkReferences": {}
}