{
  "_format": "hh-sol-artifact-1",
  "contractName": "Seed",
  "sourceName": "contracts/Seed.sol",
  "abi": [
    {
      "inputs": [],
      "stateMutability": "nonpayable",
      "type": "constructor"
    },
    {
      "inputs": [],
      "name": "seed",
      "outputs": [
        {
          "internalType": "uint256",
          "name": "",
          "type": "uint256"
        }
      ],
      "stateMutability": "view",
      "type": "function"
    },
    {
      "inputs": [
        {
          "internalType": "uint256",
          "name": "__seed",
          "type": "uint256"
        }
      ],
      "name": "update",
      "outputs": [
        {
          "internalType": "uint256",
          "name": "",
          "type": "uint256"
        }
      ],
      "stateMutability": "nonpayable",
      "type": "function"
    }
  ],
  "bytecode": "0x608060405234801561001057600080fd5b5061012e806100206000396000f3fe6080604052348015600f57600080fd5b506004361060325760003560e01c80637d94792a14603757806382ab890a14604d575b600080fd5b6000545b60405190815260200160405180910390f35b603b605836600460bc565b60008132606560014360d4565b60405160609290921b6bffffffffffffffffffffffff191660208301524060348201524260548201526074810184905260940160408051601f19818403018152919052805160209091012018600081905592915050565b60006020828403121560cd57600080fd5b5035919050565b60008282101560f357634e487b7160e01b600052601160045260246000fd5b50039056fea264697066735822122059635d300b75383b460b8249bdcec8df2a6fec07edab7b9e044082ca88ef878464736f6c63430008090033",
  "linkReferences": {},
  "deployedLinkReferences": {}
}